:100000000C942A000C9447000C9447000C94470071
:100010000C9447000C9447000C9403110C94470077
:100020000C9447000C9447000C9447000C944E121B
:100030000C9447000C9447000C9447000C94470024
:100040000C9447000C9447000C9447000C94470014
:100050000C94470011241FBECFE5D8E0DEBFCDBF12
:1000600011E0A0E6B0E0EAE3FEE202C005900D92E6
:10007000A637B107D9F711E0A6E7B1E001C01D929C
:10008000A539B107E1F70E947B120C941B170C9461
:100090000000EF92FF920F931F937B018C0120E0F1
:1000A00030E040E05FE40E94F50388238CF0C80153
:1000B000B70120E030E040E05FE40E94C1010E940F
:1000C00055049B01AC01205030404040504806C0D0
:1000D000C801B7010E9455049B01AC01B901CA01D6
:1000E0001F910F91FF90EF900895A0E0B0E0EBE733
:1000F000F0E00C944314DC012B01FA019C91923046
:1001000008F439C1EB018881823008F433C194309E
:1001100069F4843009F02FC111969C91119789815F
:10012000981709F428C1AEE6B0E025C1843009F47F
:1001300021C18230A9F4923009F01DC19A01AD01AC
:1001400088E0EA010990AE01E90109929E0181501F
:10015000C1F7E201898111969C918923818308C1AD
:10016000923009F407C112962D903C901397EB0141
:100170008A819B811496AD90BD90CD90DC901797AD
:10018000EC80FD800E811F819101281B390BB90184
:1001900037FF04C066277727621B730B6032710537
:1001A0000CF061C0121613066CF537014801062EDB
:1001B00004C096948794779467940A94D2F721E0C8
:1001C00030E040E050E004C0220F331F441F551FB1
:1001D0006A95D2F721503040404050402E213F21B7
:1001E00040235123211531054105510521F021E01E
:1001F00030E040E050E079018A01E628F72808293C
:1002000019293CC0232BD1F1260E371E350146019A
:10021000062E04C096948794779467940A94D2F734
:1002200021E030E040E050E004C0220F331F441FC3
:10023000551F6A95D2F721503040404050402A2146
:100240003B214C215D21211531054105510521F04E
:1002500021E030E040E050E059016A01A628B728CB
:10026000C828D9280BC0821593052CF01C01AA249C
:10027000BB24650103C0EE24FF24870111969C91E5
:10028000D20111968C91981709F445C0992339F041
:10029000A80197012A193B094C095D0906C0A6016E
:1002A00095012E193F09400B510B57FD08C01182D3
:1002B0003382228224833583468357831DC081E0A5
:1002C00081833382228288279927DC01821B930B4A
:1002D000A40BB50B84839583A683B7830DC0220F2F
:1002E000331F441F551F24833583468357838281E0
:1002F000938101979383828324813581468157813D
:10030000DA01C9010197A109B1098F5F9F4FAF4F72
:10031000BF4328F30BC0918333822282EA0CFB1C7B
:100320000C1D1D1DE482F5820683178383E0808304
:10033000248135814681578157FF1AC0C901AA27F8
:1003400097FDA095BA2F81709070A070B0705695EF
:10035000479537952795822B932BA42BB52B848318
:100360009583A683B7838281938101969383828349
:10037000DF0101C0D201CD01CDB7DEB7E2E10C94BF
:100380005F14A0E2B0E0E7ECF1E00C944F14698355
:100390007A838B839C832D833E834F835887E9E048
:1003A000EE2EF12CEC0EFD1ECE010196B7010E943F
:1003B00046068E010F5E1F4FCE010596B8010E94C2
:1003C00046068A8991E089278A8BC701B801AE0168
:1003D000475E5F4F0E9475000E947105A096E6E09F
:1003E0000C946B14A0E2B0E0E8EFF1E00C944F1431
:1003F00069837A838B839C832D833E834F835887C5
:10040000F9E0EF2EF12CEC0EFD1ECE010196B701A6
:100410000E9446068E010F5E1F4FCE010596B80161
:100420000E944606C701B801AE01475E5F4F0E94B9
:1004300075000E947105A096E6E00C946B14A0E292
:10044000B0E0E5E2F2E00C94431469837A838B8395
:100450009C832D833E834F835887CE010196BE0136
:10046000675F7F4F0E944606CE010596BE016F5E14
:100470007F4F0E9446069985923088F089898230A4
:10048000C8F0943019F4823051F404C0843029F457
:10049000923081F48EE690E0C6C0923049F420E0BC
:1004A0009A858A89981321E02A87CE010996BBC0D4
:1004B000823049F420E09A858A89981321E02A8BBA
:1004C000CE014196B0C02D843E844F8458886D88FB
:1004D0007E888F88988CEE24FF248701AA24BB2471
:1004E000650140E050E060E070E0E0E0F0E0C10174
:1004F00081709070892BE9F0E60CF71C081D191D1E
:100500009A01AB012A0D3B1D4C1D5D1D80E090E062
:10051000A0E0B0E0E614F7040805190520F481E036
:1005200090E0A0E0B0E0BA01A901480F591F6A1F8E
:100530007B1FAA0CBB1CCC1CDD1C97FE08C081E0F5
:1005400090E0A0E0B0E0A82AB92ACA2ADB2A3196B6
:10055000E032F10549F0660C771C881C991C569412
:10056000479437942794C3CFFA85EA892B893C892D
:100570008B859C85280F391F2E5F3F4F17C0CA01FE
:1005800081709070892B61F016950795F794E79428
:1005900080E090E0A0E0B0E8E82AF92A0A2B1B2BC3
:1005A00076956795579547952F5F3F4F77FDE7CF36
:1005B0000CC0440F551F661F771F17FD4160EE0CDE
:1005C000FF1C001F111F21503040403090E05907A0
:1005D00090E0690790E4790760F32B8F3C8FDB0193
:1005E000CA018F779070A070B07080349105A1051A
:1005F000B10561F447FD0AC0E114F10401051105DC
:1006000029F0405C5F4F6F4F7F4F40781A8EFE1786
:1006100011F081E08A8F4D8F5E8F6F8F78A383E01A
:10062000898FCE0149960E947105A096E2E10C9453
:100630005F14A8E1B0E0EFE1F3E00C944B146983A0
:100640007A838B839C832D833E834F835887B9E0C5
:10065000EB2EF12CEC0EFD1ECE010196B7010E948F
:1006600046068E010F5E1F4FCE010596B8010E940F
:1006700046062985223008F47EC03989323010F4CC
:10068000B8017CC08A859A8989278A87243011F02D
:10069000223031F4231709F06EC06EE670E06EC0B0
:1006A000343039F41D861E861F86188A1C861B86E8
:1006B00004C0323021F484E08987B7015FC02B8504
:1006C0003C858B899C89281B390B3C872B87ED84C3
:1006D000FE840F851889AD88BE88CF88D88CEA142F
:1006E000FB040C051D0540F4EE0CFF1C001F111F40
:1006F000215030403C872B8720E030E040E050E044
:1007000080E090E0A0E0B0E460E070E0EA14FB0478
:100710000C051D0540F0282B392B4A2B5B2BEA18C2
:10072000FB080C091D09B695A79597958795EE0CC2
:10073000FF1C001F111F6F5F7F4F6F31710531F775
:10074000DA01C9018F779070A070B0708034910584
:10075000A105B10561F427FD0AC0E114F10401050A
:10076000110529F0205C3F4F4F4F5F4F20782D87B8
:100770003E874F87588BBE01675F7F4FCB010E943A
:1007800071056896EAE00C946714A8E1B0E0EBEC20
:10079000F3E00C944F1469837A838B839C832D83BD
:1007A0003E834F83588789E0E82EF12CEC0EFD1E26
:1007B000CE010196B7010E9446068E010F5E1F4FC3
:1007C000CE010596B8010E9446068985823040F028
:1007D0008989823028F0C701B8010E94BE0601C095
:1007E0008FEF6896E6E00C946B14A8E1B0E0EBEFB5
:1007F000F3E00C944F1469837A838B839C832D835D
:100800003E834F83588789E0E82EF12CEC0EFD1EC5
:10081000CE010196B7010E9446068E010F5E1F4F62
:10082000CE010596B8010E9446068985823040F0C7
:100830008989823028F0C701B8010E94BE0601C034
:100840008FEF6896E6E00C946B14A8E1B0E0EBE261
:10085000F4E00C944F1469837A838B839C832D83FB
:100860003E834F83588789E0E82EF12CEC0EFD1E65
:10087000CE010196B7010E9446068E010F5E1F4F02
:10088000CE010596B8010E9446068985823040F067
:100890008989823028F0C701B8010E94BE0601C0D4
:1008A00081E06896E6E00C946B14ACE0B0E0EBE518
:1008B000F4E00C94531469837A838B839C83CE0178
:1008C0000196BE016B5F7F4F0E9446068D8182308C
:1008D00061F1823050F1843021F48E81882351F10E
:1008E0002EC02F81388537FD20C06E812F31310514
:1008F0001CF06623F9F023C08EE190E0821B930B7D
:1009000029853A854B855C8504C056954795379572
:1009100027958A95D2F76623B1F05095409530958A
:1009200021953F4F4F4F5F4F0EC020E030E040E039
:1009300050E009C02FEF3FEF4FEF5FE704C020E02A
:1009400030E040E050E8B901CA012C96E2E00C9496
:100950006F14A8E0B0E0EFEAF4E00C944B147B01D4
:100960008C01611571058105910519F482E0898377
:1009700060C083E089838EE1C82ED12CDC82CB82DB
:10098000ED82FE820F831887C801B7010E942205FD
:10099000FC013197F7FF3BC0222733272E1B3F0B6B
:1009A00057016801022E04C0D694C794B794A79447
:1009B0000A94D2F740E050E060E070E081E090E01F
:1009C000A0E0B0E004C0880F991FAA1FBB1F2A95A2
:1009D000D2F70197A109B1098E219F21A023B1234C
:1009E0000097A105B10521F041E050E060E070E022
:1009F0004A295B296C297D294D835E836F83788723
:100A00008EE190E08E1B9F0B9C838B8312C03097EE
:100A100081F00E2E04C0EE0CFF1C001F111F0A9463
:100A2000D2F7ED82FE820F831887CE1ADF0ADC82AE
:100A3000CB821A82CE0101960E9471052896EAE0C7
:100A40000C946714EF92FF920F931F937B018C011C
:100A500080E0E81680E0F80681E0080780E01807EB
:100A600088F48FEFE816F1040105110531F028F044
:100A700088E090E0A0E0B0E017C080E090E0A0E067
:100A8000B0E012C080E0E81680E0F80680E00807D9
:100A900081E0180728F088E190E0A0E0B0E004C011
:100AA00080E190E0A0E0B0E020E230E040E050E003
:100AB000281B390B4A0B5B0B04C016950795F7945E
:100AC000E7948A95D2F7F701EA58FF4F8081281BF7
:100AD000310941095109C9011F910F91FF90EF9010
:100AE0000895DF92EF92FF920F931F93FC01E48031
:100AF000F58006811781D1808081823048F480E0C2
:100B000090E0A0E1B0E0E82AF92A0A2B1B2BA5C04F
:100B1000843009F49FC0823021F4EE24FF24870141
:100B200005C0E114F1040105110519F4E0E0F0E05D
:100B300096C0628173819FEF623879070CF05BC0C9
:100B400022E83FEF261B370B2A3131052CF020E03D
:100B500030E040E050E02AC0B801A701022E04C0F6
:100B600076956795579547950A94D2F781E090E07E
:100B7000A0E0B0E004C0880F991FAA1FBB1F2A95F0
:100B8000D2F70197A109B1098E219F21A023B1239A
:100B90000097A105B10521F081E090E0A0E0B0E070
:100BA0009A01AB01282B392B4A2B5B2BDA01C901A7
:100BB0008F779070A070B07080349105A105B10559
:100BC00039F427FF09C0205C3F4F4F4F5F4F04C0EF
:100BD000215C3F4F4F4F5F4FE0E0F0E02030A0E05E
:100BE0003A07A0E04A07A0E45A0710F0E1E0F0E07D
:100BF00079018A0127C06038710564F5FB01E1586D
:100C0000FF4FD801C7018F779070A070B07080340B
:100C10009105A105B10539F4E7FE0DC080E490E02F
:100C2000A0E0B0E004C08FE390E0A0E0B0E0E80E08
:100C3000F91E0A1F1B1F17FF05C016950795F7948D
:100C4000E794319687E016950795F794E7948A958F
:100C5000D1F705C0EE24FF248701EFEFF0E06E2FFF
:100C6000679566276795902F9F77D794DD24D79453
:100C70008E2F8695492F462B582F5D29B701CA0123
:100C80001F910F91FF90EF90DF900895FC01DB0121
:100C9000408151812281622F6F7770E0221F2227CD
:100CA000221F9381892F880F822B282F30E0991FD4
:100CB0009927991F11969C93119721153105A9F534
:100CC000411551056105710511F482E037C082E8D4
:100CD0009FEF13969C938E9312979A01AB0167E056
:100CE000220F331F441F551F6A95D1F783E08C9361
:100CF0000DC0220F331F441F551F12968D919C91DA
:100D00001397019713969C938E931297203080E04F
:100D1000380780E0480780E4580758F314962D936D
:100D20003D934D935C93179708952F3F310579F4C8
:100D3000411551056105710519F484E08C930895FE
:100D400064FF03C081E08C9312C01C9210C02F5727
:100D5000304013963C932E93129783E08C9387E058
:100D6000440F551F661F771F8A95D1F7706414963C
:100D70004D935D936D937C93179708951F93DC01BA
:100D8000FB019C91923008F447C08081823008F4C6
:100D900043C0943051F411961C91843099F58181AF
:100DA000682F70E0611B71093FC0843021F09230E0
:100DB00031F48230B9F18181882389F12DC01196F7
:100DC0001C9111978230F1F081811817D9F4129695
:100DD0002D913C911397828193818217930794F010
:100DE00028173907BCF014968D919D910D90BC91F8
:100DF000A02D2481358146815781281739074A075C
:100E00005B0718F4112341F00AC082179307A40767
:100E1000B50740F4112319F061E070E005C06FEFF1
:100E20007FEF02C060E070E0CB011F910895DF9377
:100E3000CF9300D000D00F92CDB7DEB789836A83FD
:100E40004B838981282F30E03D832C836C817D8109
:100E500061307105D1F18C819D818230910534F42E
:100E60002C813D812115310571F094C06C817D810B
:100E70006230710509F44BC08C819D8183309105EE
:100E800009F467C087C0AAE3B0E0EAE3F0E080813C
:100E9000482F8A81282F30E081E090E002C0880F3F
:100EA000991F2A95E2F7809548238B81282F30E0FF
:100EB0008A81882F90E0B90102C0660F771F8A955A
:100EC000E2F7CB01842B8C9365C0A7E3B0E0E7E3A6
:100ED000F0E08081482F8A81282F30E081E090E087
:100EE00002C0880F991F2A95E2F7809548238B81CD
:100EF000282F30E08A81882F90E0B90102C0660F68
:100F0000771F8A95E2F7CB01842B8C9343C0A4E32F
:100F1000B0E0E4E3F0E08081482F8A81282F30E0C0
:100F200081E090E002C0880F991F2A95E2F7809532
:100F300048238B81282F30E08A81882F90E0B901E7
:100F400002C0660F771F8A95E2F7CB01842B8C9342
:100F500021C0A1E3B0E0E1E3F0E08081482F8A8185
:100F6000282F30E081E090E002C0880F991F2A9579
:100F7000E2F7809548238B81282F30E08A81882FE3
:100F800090E0B90102C0660F771F8A95E2F7CB01A6
:100F9000842B8C930F900F900F900F900F90CF9108
:100FA000DF910895DF93CF9300D000D00F92CDB79B
:100FB000DEB789836A834B838981282F30E03D83A4
:100FC0002C836C817D8161307105D1F18C819D8193
:100FD0008230910534F42C813D812115310571F069
:100FE00094C06C817D816230710509F44BC08C81A5
:100FF0009D818330910509F467C087C0ABE3B0E001
:10100000EBE3F0E08081482F8A81282F30E081E0F7
:1010100090E002C0880F991F2A95E2F78095482337
:101020008B81282F30E08A81882F90E0B90102C09F
:10103000660F771F8A95E2F7CB01842B8C9365C0EE
:10104000A8E3B0E0E8E3F0E08081482F8A81282F10
:1010500030E081E090E002C0880F991F2A95E2F706
:10106000809548238B81282F30E08A81882F90E05B
:10107000B90102C0660F771F8A95E2F7CB01842B76
:101080008C9343C0A5E3B0E0E5E3F0E08081482F16
:101090008A81282F30E081E090E002C0880F991FFC
:1010A0002A95E2F7809548238B81282F30E08A81AA
:1010B000882F90E0B90102C0660F771F8A95E2F78A
:1010C000CB01842B8C9321C0A2E3B0E0E2E3F0E0FB
:1010D0008081482F8A81282F30E081E090E002C093
:1010E000880F991F2A95E2F7809548238B81282F36
:1010F00030E08A81882F90E0B90102C0660F771F27
:101100008A95E2F7CB01842B8C930F900F900F9070
:101110000F900F90CF91DF910895DF93CF9300D080
:1011200000D00F92CDB7DEB78A836B8319828A8194
:10113000282F30E03D832C834C815D814130510567
:1011400041F18C819D818230910534F42C813D8167
:101150002115310561F052C04C815D81423051054D
:1011600051F18C819D8183309105B9F147C0E9E34C
:10117000F0E08081282F30E08B81882F90E0A9015A
:1011800002C0559547958A95E2F7CA018170898317
:1011900035C0E6E3F0E08081282F30E08B81882F96
:1011A00090E0A90102C0559547958A95E2F7CA01DA
:1011B0008170898323C0E3E3F0E08081282F30E051
:1011C0008B81882F90E0A90102C0559547958A959B
:1011D000E2F7CA018170898311C0E0E3F0E0808109
:1011E000282F30E08B81882F90E0A90102C055950F
:1011F00047958A95E2F7CA018170898389810F90AA
:101200000F900F900F900F90CF91DF910895DF9383
:10121000CF9300D000D0CDB7DEB789836A838981B0
:10122000282F30E03C832B838B819C81813091057A
:10123000D1F02B813C81223031052CF48B819C81B3
:10124000009761F01EC02B813C812230310581F076
:101250008B819C818330910581F013C0EAE3F0E03B
:101260008A8180830EC0E7E3F0E08A81808309C031
:10127000E4E3F0E08A81808304C0E1E3F0E08A8166
:1012800080830F900F900F900F90CF91DF91089572
:10129000DF93CF9300D000D0CDB7DEB789836A83C8
:1012A0008981282F30E03C832B838B819C81813086
:1012B0009105D1F02B813C81223031052CF48B81BA
:1012C0009C81009761F01EC02B813C81223031054A
:1012D00081F08B819C818330910581F013C0EBE319
:1012E000F0E08A8180830EC0E8E3F0E08A818083A9
:1012F00009C0E5E3F0E08A81808304C0E2E3F0E026
:101300008A8180830F900F900F900F90CF91DF9183
:101310000895DF93CF9300D000D0CDB7DEB78A8396
:1013200019828A81282F30E03C832B838B819C811A
:1013300081309105D1F02B813C81223031052CF494
:101340008B819C81009761F01EC02B813C812230F3
:10135000310581F08B819C818330910581F013C030
:10136000E9E3F0E0808189830EC0E6E3F0E080816C
:10137000898309C0E3E3F0E08081898304C0E0E36E
:10138000F0E08081898389810F900F900F900F90FA
:10139000CF91DF910895DF93CF93CDB7DEB7AFE55F
:1013A000B0E0EFE5F0E0808180688C93CF91DF9131
:1013B0000895DF93CF93CDB7DEB7AFE5B0E0EFE5AB
:1013C000F0E080818F778C93CF91DF9108950F9318
:1013D0001F93DF93CF93CDB7DEB7C654D0400FB67F
:1013E000F894DEBF0FBECDBF81E060E041E00E9417
:1013F000170781E061E041E00E94170781E062E0A9
:1014000041E00E94170780E06FEF0E940709FE018C
:10141000ED5BFF4F80E090E0A0EFB1E4808391832B
:10142000A283B3838E01015C1F4FFE01ED5BFF4F72
:10143000608171818281938120E030E04AEF54E441
:101440000E941F02DC01CB01F80180839183A283FB
:10145000B383FE01FF96608171818281938120E0D8
:1014600030E040E85FE30E94250488232CF481E00B
:1014700090E09EAF8DAF46C0FE01FF966081718106
:101480008281938120E03FEF4FE757E40E94C5033C
:10149000181664F5FE01ED5BFF4F6081718182815A
:1014A000938120E030E040E251E40E941F02DC0121
:1014B000CB01BC01CD010E944900DC01CB019EAFF4
:1014C0008DAF0FC088EC90E09CAF8BAF8BAD9CAD27
:1014D0000197F1F79CAF8BAF8DAD9EAD01979EAF9D
:1014E0008DAF8DAD9EAD009769F716C0FE01FF96DA
:1014F00060817181828193810E944900DC01CB016E
:101500009EAF8DAF8DAD9EAD9AAF89AF89AD9AADCF
:101510000197F1F79AAF89AF88E30E941C0E80E033
:1015200090E0A0E8BFE38DAB9EABAFABB8AF6DA9C9
:101530007EA98FA998AD20E030E04AEF54E40E94E4
:101540001F02DC01CB0189AB9AABABABBCAB69A989
:101550007AA98BA99CA920E030E040E85FE30E94D3
:10156000250488232CF481E090E098AB8FA73FC03E
:1015700069A97AA98BA99CA920E03FEF4FE757E41E
:101580000E94C50318164CF56DA97EA98FA998ADC8
:1015900020E030E040E251E40E941F02DC01CB0178
:1015A000BC01CD010E944900DC01CB0198AB8FA7A3
:1015B0000FC088EC90E09EA78DA78DA59EA50197F2
:1015C000F1F79EA78DA78FA598A9019798AB8FA734
:1015D0008FA598A9009769F714C069A97AA98BA962
:1015E0009CA90E944900DC01CB0198AB8FA78FA575
:1015F00098A99CA78BA78BA59CA50197F1F79CA701
:101600008BA78CE00E941C0E80E090E0A0E8BFE376
:101610008FA398A7A9A7BAA76FA178A589A59AA50E
:1016200020E030E04AEF54E40E941F02DC01CB01CD
:101630008BA39CA3ADA3BEA36BA17CA18DA19EA1F6
:1016400020E030E040E85FE30E94250488232CF48A
:1016500081E090E09AA389A33FC06BA17CA18DA1FA
:101660009EA120E03FEF4FE757E40E94C503181604
:101670004CF56FA178A589A59AA520E030E040E25D
:1016800051E40E941F02DC01CB01BC01CD010E948C
:101690004900DC01CB019AA389A30FC088EC90E03C
:1016A00098A38F8F8F8D98A10197F1F798A38F8FB3
:1016B00089A19AA101979AA389A389A19AA10097C8
:1016C00069F714C06BA17CA18DA19EA10E94490065
:1016D000DC01CB019AA389A389A19AA19E8F8D8F4A
:1016E0008D8D9E8D0197F1F79E8F8D8F81E00E94E9
:1016F0001C0E80E090E0A0E0B0E4898F9A8FAB8F61
:10170000BC8F698D7A8D8B8D9C8D20E030E04AEF07
:1017100054E40E941F02DC01CB018D8B9E8BAF8BAA
:10172000B88F6D897E898F89988D20E030E040E800
:101730005FE30E94250488232CF481E090E09C8BD9
:101740008B8B3FC06D897E898F89988D20E03FEF1C
:101750004FE757E40E94C50318164CF5698D7A8D42
:101760008B8D9C8D20E030E040E251E40E941F020E
:10177000DC01CB01BC01CD010E944900DC01CB01A1
:101780009C8B8B8B0FC088EC90E09A8B898B89891E
:101790009A890197F1F79A8B898B8B899C8901979C
:1017A0009C8B8B8B8B899C89009769F714C06D8902
:1017B0007E898F89988D0E944900DC01CB019C8B2A
:1017C0008B8B8B899C89988B8F878F8598890197C4
:1017D000F1F7988B8F8786E00E941C0E80E090E0E6
:1017E000A0E0B0E48B879C87AD87BE876B857C8546
:1017F0008D859E8520E030E04AEF54E40E941F0270
:10180000DC01CB018F839887A987BA876F817885A0
:1018100089859A8520E030E040E85FE30E94250456
:1018200088232CF481E090E09E838D833FC06F81FC
:10183000788589859A8520E03FEF4FE757E40E943D
:10184000C50318164CF56B857C858D859E8520E03B
:1018500030E040E251E40E941F02DC01CB01BC01F8
:10186000CD010E944900DC01CB019E838D830FC016
:1018700088EC90E09C838B838B819C810197F1F7AE
:101880009C838B838D819E8101979E838D838D8127
:101890009E81009769F714C06F81788589859A8544
:1018A0000E944900DC01CB019E838D838D819E8146
:1018B0009A83898389819A810197F1F79A83898331
:1018C000CA5BDF4F0FB6F894DEBF0FBECDBFCF911E
:1018D000DF911F910F910895DF93CF93CDB7DEB7BE
:1018E000AB970FB6F894DEBF0FBECDBF8BA781E0DC
:1018F00060E041E00E94D20781E061E040E00E94A8
:10190000D20781E062E041E00E94D20780E06BA54F
:101910000E94480980E090E0A0E2B1E48FA398A77C
:10192000A9A7BAA76FA178A589A59AA520E030E05C
:101930004AEF54E40E941F02DC01CB018BA39CA35D
:10194000ADA3BEA36BA17CA18DA19EA120E030E040
:1019500040E85FE30E94250488232CF481E090E0B6
:101960009AA389A33FC06BA17CA18DA19EA120E079
:101970003FEF4FE757E40E94C50318164CF56FA1DF
:1019800078A589A59AA520E030E040E251E40E94C4
:101990001F02DC01CB01BC01CD010E944900DC012A
:1019A000CB019AA389A30FC088EC90E098A38F8FF6
:1019B0008F8D98A10197F1F798A38F8F89A19AA194
:1019C00001979AA389A389A19AA1009769F714C0E6
:1019D0006BA17CA18DA19EA10E944900DC01CB01DD
:1019E0009AA389A389A19AA19E8F8D8F8D8D9E8D9B
:1019F0000197F1F79E8F8D8F81E062E040E00E94B9
:101A0000D20780E090E0A0E2B1E4898F9A8FAB8F9B
:101A1000BC8F698D7A8D8B8D9C8D20E030E04AEFF4
:101A200054E40E941F02DC01CB018D8B9E8BAF8B97
:101A3000B88F6D897E898F89988D20E030E040E8ED
:101A40005FE30E94250488232CF481E090E09C8BC6
:101A50008B8B3FC06D897E898F89988D20E03FEF09
:101A60004FE757E40E94C50318164CF5698D7A8D2F
:101A70008B8D9C8D20E030E040E251E40E941F02FB
:101A8000DC01CB01BC01CD010E944900DC01CB018E
:101A90009C8B8B8B0FC088EC90E09A8B898B89890B
:101AA0009A890197F1F79A8B898B8B899C89019789
:101AB0009C8B8B8B8B899C89009769F714C06D89EF
:101AC0007E898F89988D0E944900DC01CB019C8B17
:101AD0008B8B8B899C89988B8F878F8598890197B1
:101AE000F1F7988B8F8781E062E041E00E94D20796
:101AF00080E090E0A0E2B1E48B879C87AD87BE8751
:101B00006B857C858D859E8520E030E04AEF54E42E
:101B10000E941F02DC01CB018F839887A987BA87B7
:101B20006F81788589859A8520E030E040E85FE321
:101B30000E94250488232CF481E090E09E838D830D
:101B40003FC06F81788589859A8520E03FEF4FE718
:101B500057E40E94C50318164CF56B857C858D856E
:101B60009E8520E030E040E251E40E941F02DC014B
:101B7000CB01BC01CD010E944900DC01CB019E8359
:101B80008D830FC088EC90E09C838B838B819C813C
:101B90000197F1F79C838B838D819E8101979E83B2
:101BA0008D838D819E81009769F714C06F81788540
:101BB00089859A850E944900DC01CB019E838D8333
:101BC0008D819E819A83898389819A810197F1F71A
:101BD0009A838983AB960FB6F894DEBF0FBECDBF54
:101BE000CF91DF910895DF93CF9300D00F92CDB7BF
:101BF000DEB79B838A8319820EC08981282F30E04B
:101C00008A819B81FC01E20FF31F80810E946C0C92
:101C100089818F5F89838981282F30E08A819B8128
:101C2000FC01E20FF31F8081882339F70F900F909A
:101C30000F90CF91DF910895DF93CF93CDB7DEB7AB
:101C4000AB970FB6F894DEBF0FBECDBF8BA781E078
:101C500060E040E00E94D20781E061E040E00E9445
:101C6000D20781E062E041E00E94D20780E06BA5EC
:101C70000E94480980E090E0A0E2B1E48FA398A719
:101C8000A9A7BAA76FA178A589A59AA520E030E0F9
:101C90004AEF54E40E941F02DC01CB018BA39CA3FA
:101CA000ADA3BEA36BA17CA18DA19EA120E030E0DD
:101CB00040E85FE30E94250488232CF481E090E053
:101CC0009AA389A33FC06BA17CA18DA19EA120E016
:101CD0003FEF4FE757E40E94C50318164CF56FA17C
:101CE00078A589A59AA520E030E040E251E40E9461
:101CF0001F02DC01CB01BC01CD010E944900DC01C7
:101D0000CB019AA389A30FC088EC90E098A38F8F92
:101D10008F8D98A10197F1F798A38F8F89A19AA130
:101D200001979AA389A389A19AA1009769F714C082
:101D30006BA17CA18DA19EA10E944900DC01CB0179
:101D40009AA389A389A19AA19E8F8D8F8D8D9E8D37
:101D50000197F1F79E8F8D8F81E062E040E00E9455
:101D6000D20780E090E0A0E2B1E4898F9A8FAB8F38
:101D7000BC8F698D7A8D8B8D9C8D20E030E04AEF91
:101D800054E40E941F02DC01CB018D8B9E8BAF8B34
:101D9000B88F6D897E898F89988D20E030E040E88A
:101DA0005FE30E94250488232CF481E090E09C8B63
:101DB0008B8B3FC06D897E898F89988D20E03FEFA6
:101DC0004FE757E40E94C50318164CF5698D7A8DCC
:101DD0008B8D9C8D20E030E040E251E40E941F0298
:101DE000DC01CB01BC01CD010E944900DC01CB012B
:101DF0009C8B8B8B0FC088EC90E09A8B898B8989A8
:101E00009A890197F1F79A8B898B8B899C89019725
:101E10009C8B8B8B8B899C89009769F714C06D898B
:101E20007E898F89988D0E944900DC01CB019C8BB3
:101E30008B8B8B899C89988B8F878F85988901974D
:101E4000F1F7988B8F8781E062E041E00E94D20732
:101E500080E090E0A0E2B1E48B879C87AD87BE87ED
:101E60006B857C858D859E8520E030E04AEF54E4CB
:101E70000E941F02DC01CB018F839887A987BA8754
:101E80006F81788589859A8520E030E040E85FE3BE
:101E90000E94250488232CF481E090E09E838D83AA
:101EA0003FC06F81788589859A8520E03FEF4FE7B5
:101EB00057E40E94C50318164CF56B857C858D850B
:101EC0009E8520E030E040E251E40E941F02DC01E8
:101ED000CB01BC01CD010E944900DC01CB019E83F6
:101EE0008D830FC088EC90E09C838B838B819C81D9
:101EF0000197F1F79C838B838D819E8101979E834F
:101F00008D838D819E81009769F714C06F817885DC
:101F100089859A850E944900DC01CB019E838D83CF
:101F20008D819E819A83898389819A810197F1F7B6
:101F30009A838983AB960FB6F894DEBF0FBECDBFF0
:101F4000CF91DF910895DF93CF93CDB7DEB781E0D6
:101F50000E941C0ECF91DF910895DF93CF9300D0A4
:101F60000F92CDB7DEB78A836B8319828A8188236B
:101F700019F48B81898303C08B81805C898389817B
:101F800080580E941C0E0F900F900F90CF91DF9100
:101F90000895DF93CF93CDB7DEB727970FB6F894A8
:101FA000DEBF0FBECDBF9C838B836D834E832F839B
:101FB0001A828D81882F90E0880F991F880F991FB2
:101FC000880F991F8A838A8180640E941C0E19825F
:101FD00003C089818F5F898389818830D0F32796F8
:101FE0000FB6F894DEBF0FBECDBFCF91DF9108953D
:101FF000DF93CF93CDB7DEB7AFE4B0E0EFE4F0E02E
:1020000080818E7F8C93AFE4B0E0EFE4F0E08081DC
:1020100082608C93AEE4B0E0EEE4F0E08081806119
:102020008C93AEE4B0E0EEE4F0E0808188608C93C5
:10203000AFE4B0E0EFE4F0E080818F7B8C93AFE41D
:10204000B0E0EFE4F0E0808180688C9383E065E0AD
:1020500041E00E941707AEE4B0E0EEE4F0E08081DA
:1020600081608C93AEE4B0E0EEE4F0E080818260C9
:102070008C93AEE4B0E0EEE4F0E080818B7F8C9353
:10208000E6E4F0E084EC99E091838083CF91DF91E6
:102090000895DF93CF9300D0CDB7DEB79A838983BD
:1020A000EAE4F0E089819A81918380830F900F9018
:1020B000CF91DF910895DF93CF93CDB7DEB783E063
:1020C00066E040E00E941707AEE4B0E0EEE4F0E026
:1020D000808181608C93AEE4B0E0EEE4F0E080813A
:1020E0008D7F8C93AEE4B0E0EEE4F0E080818B7FF6
:1020F0008C93AFE4B0E0EFE4F0E080818E7F8C93CE
:10210000AFE4B0E0EFE4F0E080818D7F8C93AEE44B
:10211000B0E0EEE4F0E08081877F8C93AEE4B0E045
:10212000EEE4F0E080818F7E8C93AEE4B0E0EEE4EC
:10213000F0E0808180648C93A9E5B0E0E9E5F0E00F
:10214000808180628C93CF91DF910895DF93CF934C
:10215000CDB7DEB7ECE4F0E011821082CF91DF91D1
:102160000895DF93CF93CDB7DEB7E6E4F0E080814A
:102170009181CF91DF910895DF93CF930F92CDB7E7
:10218000DEB789838981813041F4AEE4B0E0EEE4CA
:10219000F0E0808180648C930AC08981882339F4BF
:1021A000AEE4B0E0EEE4F0E080818F7B8C930F90A2
:1021B000CF91DF910895DF93CF93CDB7DEB7ECE4F5
:1021C000F0E011821082E6E4F0E011821082A9E5CD
:1021D000B0E0E9E5F0E080818F7D8C93CF91DF91D5
:1021E0000895DF93CF9300D0CDB7DEB79A8389836C
:1021F00089819A8190937E0180937D010F900F9049
:10220000CF91DF9108951F920F920FB60F92112474
:102210002F933F934F935F936F937F938F939F93EE
:10222000AF93BF93EF93FF93DF93CF93CDB7DEB719
:10223000E0917D01F0917E010995CF91DF91FF91B1
:10224000EF91BF91AF919F918F917F916F915F912E
:102250004F913F912F910F900FBE0F901F901895A7
:10226000DF93CF9300D00F92CDB7DEB789836A8317
:102270004B83A8E5B0E0E8E5F0E0808181608C93D5
:1022800089818130D1F4A3E5B0E0E3E5F0E080811D
:102290008F7B8C93A3E5B0E0E3E5F0E08081877F5E
:1022A0008C93A9E5B0E0E9E5F0E0808181608C9352
:1022B000E2E5F0E08B81808347C08981823079F448
:1022C000A3E5B0E0E3E5F0E080818F7B8C93A3E5AC
:1022D000B0E0E3E5F0E0808188608C9335C08981CF
:1022E000833079F4A3E5B0E0E3E5F0E08081806439
:1022F0008C93A3E5B0E0E3E5F0E08081877F8C93E9
:1023000023C08981843001F5A3E5B0E0E3E5F0E086
:10231000808188608C93A3E5B0E0E3E5F0E0808104
:1023200080648C93A3E5B0E0E3E5F0E080818F7EEC
:102330008C93A3E5B0E0E3E5F0E0808180628C93CC
:10234000ECE5F0E088EC80838A818823B1F4A3E592
:10235000B0E0E3E5F0E0808181608C93A3E5B0E03C
:10236000E3E5F0E080818D7F8C93A3E5B0E0E3E5C9
:10237000F0E080818B7F8C9379C08A818130B1F4C9
:10238000A3E5B0E0E3E5F0E080818E7F8C93A3E5E8
:10239000B0E0E3E5F0E0808182608C93A3E5B0E0FB
:1023A000E3E5F0E080818B7F8C9360C08A8182308E
:1023B000B1F4A3E5B0E0E3E5F0E0808181608C93C7
:1023C000A3E5B0E0E3E5F0E0808182608C93A3E5D3
:1023D000B0E0E3E5F0E080818B7F8C9347C08A8199
:1023E0008330B1F4A3E5B0E0E3E5F0E080818E7FD7
:1023F0008C93A3E5B0E0E3E5F0E080818D7F8C93E2
:10240000A3E5B0E0E3E5F0E0808184608C932EC02A
:102410008A818430B1F4A3E5B0E0E3E5F0E08081A7
:1024200081608C93A3E5B0E0E3E5F0E080818D7FEF
:102430008C93A3E5B0E0E3E5F0E0808184608C93C9
:1024400015C0A3E5B0E0E3E5F0E080818E7F8C93DA
:10245000A3E5B0E0E3E5F0E080818D7F8C93A3E518
:10246000B0E0E3E5F0E080818B7F8C930F900F90DC
:102470000F90CF91DF910895DF93CF9300D0CDB728
:10248000DEB79A83898389819A81909380018093B2
:102490007F010F900F90CF91DF9108951F920F92BF
:1024A0000FB60F9211242F933F934F935F936F9327
:1024B0007F938F939F93AF93BF93EF93FF93DF939C
:1024C000CF93CDB7DEB7E0917F01F0918001099500
:1024D000CF91DF91FF91EF91BF91AF919F918F913C
:1024E0007F916F915F914F913F912F910F900FBE10
:1024F0000F901F901895EF92FF920F931F93DF9309
:10250000CF93CDB7DEB761970FB6F894DEBF0FBE9D
:10251000CDBF198A188A1F860E94E7090E945B10A6
:1025200081E063E041E00E94170784E062E040EC54
:102530000E9430110E94CB0988EC93E10E94F110B7
:102540000E94A30F80917601843009F05CC0209135
:102550007B0130917C018091790190917A01A901F0
:10256000481B590BCA019C0140E050E080E092E119
:10257000AAE7B0E0BC01CD010E940614DA01C9014E
:10258000998B888B20917B0130917C018091770120
:1025900090917801A901481B590BCA01CC01A0E018
:1025A000B0E0BC01CD010E94A9047B018C01209107
:1025B0007B0130917C018091790190917A01A90190
:1025C000481B590BCA01CC01A0E0B0E0BC01CD0111
:1025D0000E94A9049B01AC01C801B7010E94190324
:1025E000DC01CB01BC01CD0120E030E048EC52E43D
:1025F0000E941F02DC01CB01BC01CD010E944900F9
:10260000DC01CB018F8700D000D000D0EDB7FEB742
:10261000319681E891E09183808380E690E0938316
:10262000828388899989958384830E947A148DB7DF
:102630009EB706960FB6F8949EBF0FBE8DBF8F85CE
:10264000282F30E000D000D000D0EDB7FEB7319693
:102650008BE891E09183808380E690E0938382838E
:10266000358324830E947A144DB75EB74A5F5F4F6B
:102670000FB6F8945EBF0FBE4DBF80E060E00E94D1
:10268000AD0F83E690E00E94F30D81E891E00E9497
:10269000F30D81E060E00E94AD0F88E690E00E94BB
:1026A000F30D8BE891E00E94F30D80E090E0AAE743
:1026B000B4E48B879C87AD87BE876B857C858D85D1
:1026C0009E8520E030E04AEF54E40E941F02DC01C6
:1026D000CB018F839887A987BA876F817885898591
:1026E0009A8520E030E040E85FE30E9425048823DB
:1026F0002CF481E090E09E838D833FC06F817885CC
:1027000089859A8520E03FEF4FE757E40E94C50393
:1027100018164CF56B857C858D859E8520E030E014
:1027200040E251E40E941F02DC01CB01BC01CD015B
:102730000E944900DC01CB019E838D830FC088EC91
:1027400090E09C838B838B819C810197F1F79C8324
:102750008B838D819E8101979E838D838D819E8148
:10276000009769F7EDCE6F81788589859A850E94FB
:102770004900DC01CB019E838D838D819E819A83EC
:10278000898389819A810197F1F79A838983D8CEC9
:10279000DF93CF93CDB7DEB7809176018F5F8093C3
:1027A000760180917601813031F40E94A61080E09C
:1027B0000E94BC1028C080917601823051F40E94A2
:1027C000B11090937A018093790181E00E94BC104E
:1027D0001AC080917601833051F40E94B110909319
:1027E00078018093770181E00E94BC100CC0809139
:1027F0007601843041F40E94B11090937C01809363
:102800007B010E94DB10CF91DF91089597FB092E89
:1028100005260ED057FD04D014D00AD0001C38F481
:1028200050954095309521953F4F4F4F5F4F0895FC
:10283000F6F790958095709561957F4F8F4F9F4FDC
:102840000895A1E21A2EAA1BBB1BFD010DC0AA1FF1
:10285000BB1FEE1FFF1FA217B307E407F50720F009
:10286000A21BB30BE40BF50B661F771F881F991F84
:102870001A9469F760957095809590959B01AC01CD
:10288000BD01CF0108952F923F924F925F926F92B8
:102890007F928F929F92AF92BF92CF92DF92EF92F0
:1028A000FF920F931F93CF93DF93CDB7DEB7CA1B71
:1028B000DB0B0FB6F894DEBF0FBECDBF09942A889C
:1028C000398848885F846E847D848C849B84AA8444
:1028D000B984C884DF80EE80FD800C811B81AA81D1
:1028E000B981CE0FD11D0FB6F894DEBF0FBECDBF9C
:1028F000ED010895AEE0B0E0E0E8F4E10C9451148D
:102900000D891E8986E08C831A8309838FEF9FE7E8
:102910009E838D839E01275E3F4FCE0101966F8976
:10292000788DA9010E949E142F813885020F131FF4
:10293000F80110822E96E4E00C946D14ABE0B0E048
:10294000E4EAF4E10C9443143C012B015A01FC012C
:1029500017821682838181FD03C06FEF7FEFC6C1AE
:102960009AE0892E1E010894211C311CF301238159
:10297000F20123FD859123FF81912F01882309F422
:10298000B2C1853239F423FD859123FF81912F0156
:10299000853229F490E0B3010E949116E7CF982F79
:1029A000FF24EE249924FFE1FF15D0F09B3269F05B
:1029B0009C3228F4903259F0933291F40EC09D323B
:1029C00049F0903369F441E024C052E0F52A84E0F4
:1029D000F82A28C098E0F92A25C0E0E1FE2A22C0A2
:1029E000F7FC29C0892F80538A3070F4F6FE05C0A9
:1029F000989C902C1124980E15C0E89CE02C112472
:102A0000E80EF0E2FF2A0EC09E3229F4F6FC6BC1FC
:102A100040E4F42A07C09C3619F450E8F52A02C0B5
:102A2000983649F4F20123FD959123FF91912F01EE
:102A3000992309F0B8CF892F8554833018F080523C
:102A4000833038F444E050E0A40EB51E5FE35983B0
:102A50000FC0933631F0933779F0933509F056C0B3
:102A600020C0F5018081898342E050E0A40EB51EAC
:102A7000610101E010E012C0F501C080D180F6FCD8
:102A800003C06FEF7FEF02C0692D70E042E050E0BD
:102A9000A40EB51EC6010E9486168C015FE7F522C2
:102AA00014C0F501C080D180F6FC03C06FEF7FEF4A
:102AB00002C0692D70E042E050E0A40EB51EC601D0
:102AC0000E947B168C0150E8F52AF3FE07C01AC05D
:102AD00080E290E0B3010E949116EA948E2D90E07E
:102AE00008171907A8F30EC0F601F7FC8591F7FE49
:102AF00081916F0190E0B3010E949116E110EA9478
:102B0000015010400115110579F7EAC0943611F013
:102B1000993669F5F7FE08C0F501208131814281BF
:102B2000538184E090E00AC0F501808191819C018D
:102B3000442737FD4095542F82E090E0A80EB91E3F
:102B40009FE6F92257FF09C0509540953095219591
:102B50003F4F4F4F5F4FE0E8FE2ACA01B901A10184
:102B60002AE030E00E94BD16D82ED21840C095371A
:102B700029F41F2D1F7E2AE030E01DC01F2D197F74
:102B80009F3661F0903720F4983509F0ACC00FC043
:102B9000903739F0983709F0A6C004C028E030E03B
:102BA0000AC0106114FD146020E130E004C014FD7F
:102BB000166020E132E017FF08C0F50160817181E5
:102BC0008281938144E050E008C0F50180819181C9
:102BD000BC0180E090E042E050E0A40EB51EA101EF
:102BE0000E94BD16D82ED2188FE7F82EF122F6FEDD
:102BF0000BC05EEFF522D91438F4F4FE07C0F2FCE6
:102C000005C08FEEF82202C01D2D01C0192DF4FE63
:102C10000DC0FE01ED0DF11D8081803319F499EE98
:102C2000F92208C01F5FF2FE05C003C08F2D867811
:102C300009F01F5F0F2DF3FC14C0F0FE0FC01E152E
:102C400010F09D2C0BC09D2C9E0C911A1E2D06C0C1
:102C500080E290E0B3010E9491161F5F1E15C0F341
:102C600004C01E1510F4E11A01C0EE2404FF0FC0C9
:102C700080E390E0B3010E94911602FF1DC001FDA8
:102C800003C088E790E00EC088E590E00BC0802F7D
:102C9000867891F001FF02C08BE201C080E2F7FC70
:102CA0008DE290E0B3010E94911606C080E390E0AF
:102CB000B3010E9491169A94D914C0F3DA94F101E9
:102CC000ED0DF11D808190E0B3010E949116DD2091
:102CD000A9F706C080E290E0B3010E949116EA9441
:102CE000EE20C1F743CEF30166817781CB012B96AD
:102CF000E2E10C945F14FC010590615070400110FA
:102D0000D8F7809590958E0F9F1F0895FC01615014
:102D1000704001900110D8F7809590958E0F9F1FFD
:102D200008950F931F93CF93DF938C01EB018B8159
:102D300081FF1BC082FF0DC02E813F818C819D8150
:102D40002817390764F4E881F9810193F983E8834E
:102D500006C0E885F985802F0995892B31F48E818D
:102D60009F8101969F838E8302C00FEF1FEFC801E2
:102D7000DF91CF911F910F910895FA01AA27283072
:102D800051F1203181F1E8946F936E7F6E5F7F4F38
:102D90008F4F9F4FAF4FB1E03ED0B4E03CD0670FB4
:102DA000781F891F9A1FA11D680F791F8A1F911D07
:102DB000A11D6A0F711D811D911DA11D20D009F457
:102DC00068943F912AE0269F11243019305D319399
:102DD000DEF6CF010895462F4770405D4193B3E082
:102DE0000FD0C9F7F6CF462F4F70405D4A3318F029
:102DF000495D31FD4052419302D0A9F7EACFB4E0DA
:102E0000A6959795879577956795BA95C9F7009791
:102E10006105710508959B01AC010A2E0694579532
:102E2000479537952795BA95C9F7620F731F841F89
:0A2E3000951FA01D0895F894FFCF30
:102E3A002564004652453A00445554593A00000068
:102E4A00000000000000000102020303030304045F
:102E5A00040404040404050505050505050505051E
:102E6A0005050505050506060606060606060606FE
:102E7A0006060606060606060606060606060606E8
:102E8A0006060606060607070707070707070707CE
:102E9A0007070707070707070707070707070707B8
:102EAA0007070707070707070707070707070707A8
:102EBA000707070707070707070707070707070798
:102ECA00070707070707080808080808080808087E
:102EDA000808080808080808080808080808080868
:102EEA000808080808080808080808080808080858
:102EFA000808080808080808080808080808080848
:102F0A000808080808080808080808080808080837
:102F1A000808080808080808080808080808080827
:102F2A000808080808080808080808080808080817
:102F3A000808080808080808080808080808080807
:062F4A0008080808080851
:00000001FF
