:100000000C942A000C9434000C9434000C943400AA
:100010000C9434000C9434000C9434000C94340090
:100020000C9434000C9434000C9434000C94340080
:100030000C9434000C9434000C9434000C94340070
:100040000C9434000C9434000C9434000C94340060
:100050000C94340011241FBECFE5D8E0DEBFCDBF25
:100060000E941C030C943E030C940000DF93CF937A
:1000700000D000D00F92CDB7DEB789836A834B835F
:100080008981282F30E03D832C838C819D818130B4
:10009000910509F440C0EC81FD81E230F10534F4B2
:1000A0002C813D812115310571F0ACC08C819D8181
:1000B0008230910509F457C0EC81FD81E330F105F0
:1000C00009F479C09FC06AE370E0AAE3B0E0EAE314
:1000D000F0E08081482F8A81282F30E081E090E095
:1000E00002C0880F991F2A95E2F7809584238C938C
:1000F0008C91482F8B81282F30E08A81882F90E0C7
:10010000F90102C0EE0FFF1F8A95E2F7CF01842BA1
:10011000FB01808377C067E370E0A7E3B0E0E7E32B
:10012000F0E08081482F8A81282F30E081E090E044
:1001300002C0880F991F2A95E2F7809584238C933B
:100140008C91482F8B81282F30E08A81882F90E076
:10015000F90102C0EE0FFF1F8A95E2F7CF01842B51
:10016000FB0180834FC064E370E0A4E3B0E0E4E30C
:10017000F0E08081482F8A81282F30E081E090E0F4
:1001800002C0880F991F2A95E2F7809584238C93EB
:100190008C91482F8B81282F30E08A81882F90E026
:1001A000F90102C0EE0FFF1F8A95E2F7CF01842B01
:1001B000FB01808327C061E370E0A1E3B0E0E1E3ED
:1001C000F0E08081482F8A81282F30E081E090E0A4
:1001D00002C0880F991F2A95E2F7809584238C939B
:1001E0008C91482F8B81282F30E08A81882F90E0D6
:1001F000F90102C0EE0FFF1F8A95E2F7CF01842BB1
:10020000FB0180830F900F900F900F900F90CF9174
:10021000DF910895DF93CF9300D000D00F92CDB738
:10022000DEB789836A834B838981282F30E03D8341
:100230002C838C819D818130910509F440C0EC8133
:10024000FD81E230F10534F42C813D812115310529
:1002500071F0ACC08C819D818230910509F457C04A
:10026000EC81FD81E330F10509F479C09FC06BE3B7
:1002700070E0ABE3B0E0EBE3F0E08081482F8A81EF
:10028000282F30E081E090E002C0880F991F2A9566
:10029000E2F7809584238C938C91482F8B81282FB3
:1002A00030E08A81882F90E0F90102C0EE0FFF1F35
:1002B0008A95E2F7CF01842BFB01808377C068E346
:1002C00070E0A8E3B0E0E8E3F0E08081482F8A81A5
:1002D000282F30E081E090E002C0880F991F2A9516
:1002E000E2F7809584238C938C91482F8B81282F63
:1002F00030E08A81882F90E0F90102C0EE0FFF1FE5
:100300008A95E2F7CF01842BFB0180834FC065E320
:1003100070E0A5E3B0E0E5E3F0E08081482F8A815A
:10032000282F30E081E090E002C0880F991F2A95C5
:10033000E2F7809584238C938C91482F8B81282F12
:1003400030E08A81882F90E0F90102C0EE0FFF1F94
:100350008A95E2F7CF01842BFB01808327C062E3FB
:1003600070E0A2E3B0E0E2E3F0E08081482F8A8110
:10037000282F30E081E090E002C0880F991F2A9575
:10038000E2F7809584238C938C91482F8B81282FC2
:1003900030E08A81882F90E0F90102C0EE0FFF1F44
:1003A0008A95E2F7CF01842BFB0180830F900F9099
:1003B0000F900F900F90CF91DF910895DF93CF931F
:1003C00000D000D00F92CDB7DEB78A836B8319823D
:1003D0008A81282F30E03D832C834C815D81413020
:1003E000510541F18C819D818230910534F42C813D
:1003F0003D812115310561F052C04C815D81423053
:10040000510551F18C819D8183309105B9F147C02F
:10041000E9E3F0E08081282F30E08B81882F90E0A5
:10042000A90102C0559547958A95E2F7CA018170E6
:10043000898335C0E6E3F0E08081282F30E08B81AE
:10044000882F90E0A90102C0559547958A95E2F75B
:10045000CA018170898323C0E3E3F0E08081282F03
:1004600030E08B81882F90E0A90102C05595479517
:100470008A95E2F7CA018170898311C0E0E3F0E058
:100480008081282F30E08B81882F90E0A90102C065
:10049000559547958A95E2F7CA01817089838981CC
:1004A0000F900F900F900F900F90CF91DF910895C4
:1004B000DF93CF9300D000D0CDB7DEB789836A83B6
:1004C0008981282F30E03C832B838B819C81813074
:1004D0009105D1F02B813C81223031052CF48B81A8
:1004E0009C81009761F01EC02B813C812230310538
:1004F00081F08B819C818330910581F013C0EAE308
:10050000F0E08A8180830EC0E7E3F0E08A81808397
:1005100009C0E4E3F0E08A81808304C0E1E3F0E015
:100520008A8180830F900F900F900F90CF91DF9171
:100530000895DF93CF9300D000D0CDB7DEB7898385
:100540006A838981282F30E03C832B838B819C81B7
:1005500081309105D1F02B813C81223031052CF482
:100560008B819C81009761F01EC02B813C812230E1
:10057000310581F08B819C818330910581F013C01E
:10058000EBE3F0E08A8180830EC0E8E3F0E08A814B
:10059000808309C0E5E3F0E08A81808304C0E2E360
:1005A000F0E08A8180830F900F900F900F90CF9191
:1005B000DF910895DF93CF9300D000D0CDB7DEB7A1
:1005C0008A8319828A81282F30E03C832B838B8198
:1005D0009C8181309105D1F02B813C812230310505
:1005E0002CF48B819C81009761F01EC02B813C8193
:1005F0002230310581F08B819C818330910581F01F
:1006000013C0E9E3F0E0808189830EC0E6E3F0E007
:100610008081898309C0E3E3F0E08081898304C09D
:10062000E0E3F0E08081898389810F900F900F9043
:100630000F90CF91DF910895DF93CF930F92CDB7B5
:10064000DEB7198280E061E00E94580280E062E03B
:100650000E94990280E061E00E94DE018983898125
:10066000882331F480E060E041E00E940A01F2CF8B
:1006700080E060E040E00E940A01ECCFF894FFCFF8
:00000001FF
