:100000000C942A000C9447000C9447000C94470071
:100010000C9447000C9447000C9447000C94F50A8C
:100020000C9447000C9447000C9447000C94470034
:100030000C9447000C9447000C9447000C94470024
:100040000C9447000C9447000C9447000C94470014
:100050000C94470011241FBECFE5D8E0DEBFCDBF12
:1000600010E0A0E6B0E0EAE0FDE202C005900D92EB
:10007000A836B107D9F713E0A8E6B0E001C01D9299
:10008000A236B107E1F70E947C070C9483160C940A
:100090000000DF93CF9300D000D00F92CDB7DEB732
:1000A00089836A834B838981282F30E03D832C83A9
:1000B0006C817D8161307105D1F18C819D818230AF
:1000C000910534F42C813D812115310571F094C0E6
:1000D0006C817D816230710509F44BC08C819D81FA
:1000E0008330910509F467C087C0AAE3B0E0EAE372
:1000F000F0E08081482F8A81282F30E081E090E075
:1001000002C0880F991F2A95E2F7809548238B81BA
:10011000282F30E08A81882F90E0B90102C0660F55
:10012000771F8A95E2F7CB01842B8C9365C0A7E3F8
:10013000B0E0E7E3F0E08081482F8A81282F30E0AB
:1001400081E090E002C0880F991F2A95E2F7809520
:1001500048238B81282F30E08A81882F90E0B901D5
:1001600002C0660F771F8A95E2F7CB01842B8C9330
:1001700043C0A4E3B0E0E4E3F0E08081482F8A814B
:10018000282F30E081E090E002C0880F991F2A9567
:10019000E2F7809548238B81282F30E08A81882FD1
:1001A00090E0B90102C0660F771F8A95E2F7CB0194
:1001B000842B8C9321C0A1E3B0E0E1E3F0E08081E7
:1001C000482F8A81282F30E081E090E002C0880F1C
:1001D000991F2A95E2F7809548238B81282F30E0DC
:1001E0008A81882F90E0B90102C0660F771F8A9537
:1001F000E2F7CB01842B8C930F900F900F900F9010
:100200000F90CF91DF910895DF93CF9300D000D06E
:100210000F92CDB7DEB789836A834B838981282FFC
:1002200030E03D832C836C817D8161307105D1F19B
:100230008C819D818230910534F42C813D81211582
:10024000310571F094C06C817D816230710509F4D3
:100250004BC08C819D818330910509F467C087C0B4
:10026000ABE3B0E0EBE3F0E08081482F8A81282FF8
:1002700030E081E090E002C0880F991F2A95E2F7F4
:10028000809548238B81282F30E08A81882F90E049
:10029000B90102C0660F771F8A95E2F7CB01842B64
:1002A0008C9365C0A8E3B0E0E8E3F0E08081482FDC
:1002B0008A81282F30E081E090E002C0880F991FEA
:1002C0002A95E2F7809548238B81282F30E08A8198
:1002D000882F90E0B90102C0660F771F8A95E2F778
:1002E000CB01842B8C9343C0A5E3B0E0E5E3F0E0C1
:1002F0008081482F8A81282F30E081E090E002C081
:10030000880F991F2A95E2F7809548238B81282F23
:1003100030E08A81882F90E0B90102C0660F771F14
:100320008A95E2F7CB01842B8C9321C0A2E3B0E045
:10033000E2E3F0E08081482F8A81282F30E081E0DD
:1003400090E002C0880F991F2A95E2F78095482314
:100350008B81282F30E08A81882F90E0B90102C07C
:10036000660F771F8A95E2F7CB01842B8C930F9051
:100370000F900F900F900F90CF91DF910895DF9322
:10038000CF9300D000D00F92CDB7DEB78A836B83B6
:1003900019828A81282F30E03D832C834C815D8136
:1003A0004130510541F18C819D818230910534F4B9
:1003B0002C813D812115310561F052C04C815D8158
:1003C0004230510551F18C819D8183309105B9F105
:1003D00047C0E9E3F0E08081282F30E08B81882F4F
:1003E00090E0A90102C0559547958A95E2F7CA01A8
:1003F0008170898335C0E6E3F0E08081282F30E00A
:100400008B81882F90E0A90102C0559547958A9568
:10041000E2F7CA018170898323C0E3E3F0E08081C1
:10042000282F30E08B81882F90E0A90102C05595DC
:1004300047958A95E2F7CA018170898311C0E0E38C
:10044000F0E08081282F30E08B81882F90E0A90197
:1004500002C0559547958A95E2F7CA018170898354
:1004600089810F900F900F900F900F90CF91DF9197
:100470000895DF93CF9300D000D0CDB7DEB7898346
:100480006A838981282F30E03C832B838B819C8178
:1004900081309105D1F02B813C81223031052CF443
:1004A0008B819C81009761F01EC02B813C812230A2
:1004B000310581F08B819C818330910581F013C0DF
:1004C000EAE3F0E08A8180830EC0E7E3F0E08A810E
:1004D000808309C0E4E3F0E08A81808304C0E1E323
:1004E000F0E08A8180830F900F900F900F90CF9152
:1004F000DF910895DF93CF9300D000D0CDB7DEB762
:1005000089836A838981282F30E03C832B838B8108
:100510009C8181309105D1F02B813C8122303105C5
:100520002CF48B819C81009761F01EC02B813C8153
:100530002230310581F08B819C818330910581F0DF
:1005400013C0EBE3F0E08A8180830EC0E8E3F0E0C3
:100550008A81808309C0E5E3F0E08A81808304C05A
:10056000E2E3F0E08A8180830F900F900F900F906C
:10057000CF91DF910895DF93CF9300D000D0CDB716
:10058000DEB78A8319828A81282F30E03C832B834F
:100590008B819C8181309105D1F02B813C8122306F
:1005A00031052CF48B819C81009761F01EC02B815A
:1005B0003C812230310581F08B819C818330910513
:1005C00081F013C0E9E3F0E0808189830EC0E6E3A7
:1005D000F0E08081898309C0E3E3F0E080818983D2
:1005E00004C0E0E3F0E08081898389810F900F905F
:1005F0000F900F90CF91DF910895DF93CF93CDB7F8
:10060000DEB727970FB6F894DEBF0FBECDBF9D8330
:100610008C836E834F838AE190E00E94D5059A8394
:10062000898389819A81009709F46FC0809168005D
:1006300090916900009741F489819A8190936900B3
:10064000809368000E9464058E81823010F081E002
:100650008E83E981FA81118E108EE981FA818E8173
:10066000868BE981FA818F81878BE981FA818C8180
:100670009D819183808389819A8102960E946B0675
:1006800089819A810C960E946B06E981FA818981A1
:100690009A8191878087E981FA8189819A81938BF8
:1006A000828B8E81282F30E085E090E0821B930BB7
:1006B000E981FA8195878487E981FA819689809119
:1006C0006A00891728F4E981FA81868980936A0093
:1006D000E981FA818689282F30E0C901880F991FA6
:1006E000880F991F880F991F820F931FAC014F58D5
:1006F0005F4F89819A819C012E5F3F4FCA01B901EA
:100700000E947B0681E08B8302C08FEF8B838B81FD
:1007100027960FB6F894DEBF0FBECDBFCF91DF9105
:100720000895DF93CF9300D000D000D0CDB7DEB7CF
:100730009C838B837E836D8320916B0030916C0052
:100740008B819C81820F931F9A838983809168009B
:100750009091690002960E943307E0916800F09141
:10076000690089819A819383828320916B00309103
:100770006C0089819A818217930770F480919700A9
:100780009091980020916800309169002E5F3F4F52
:10079000B9010E94C7060DC0809195009091960006
:1007A00020916800309169002E5F3F4FB9010E948F
:1007B000C7068D819E81009761F0809168009091BD
:1007C00069009C01245F3F4F8D819E81B9010E9489
:1007D000C70626960FB6F894DEBF0FBECDBFCF91E9
:1007E000DF910895DF93CF9300D0CDB7DEB73AC045
:1007F000F894E0919E00F0919F00868197819A8302
:10080000898389819A810C960E9433077894898123
:100810009A8102960E943307E981FA819689809134
:100820006A00891728F4E981FA81868980936A0031
:10083000E981FA818689282F30E0C901880F991F44
:10084000880F991F880F991F820F931FAC014F5873
:100850005F4F89819A819C012E5F3F4FCA01B90188
:100860000E947B0680919900882309F0C1CF0F90E8
:100870000F90CF91DF910895DF93CF9300D000D0F8
:10088000CDB7DEB70E944B1220916D0030916E0003
:10089000821B930B9093700080936F0085C08091B2
:1008A0006B0090916C00019690936C0080936B00AC
:1008B00080916F00909170000197909370008093E9
:1008C0006F0080916B0090916C00009709F064C0FC
:1008D00080919500909196009A83898380919700EA
:1008E00090919800909396008093950089819A81C9
:1008F00090939800809397004FC0E0919500F091FD
:1009000096000580F681E02D868197819C838B83FC
:10091000EB81FC812281338180916B0090916C008E
:100920008217930708F440C0F8948B819C8102964B
:100930000E943307EB81FC8184899589009729F017
:100940008B819C810C960E9433077894EB81FC810B
:10095000968980916A00891728F4EB81FC81868949
:1009600080936A00EB81FC818689282F30E0C901E1
:10097000880F991F880F991F880F991F820F931F47
:10098000AC014F585F4F8B819C819C012E5F3F4F84
:10099000CA01B9010E947B06E0919500F091960092
:1009A0008081882309F0A9CF80916F009091700019
:1009B000009709F074CF80916B0090916C00909338
:1009C0006E0080936D000F900F900F900F90CF915D
:1009D000DF910895DF93CF9300D0CDB7DEB70E94AB
:1009E000F2030E943C040AC080916A00882309F443
:1009F00066C080916A00815080936A0080916A008D
:100A0000282F30E0C901880F991F880F991F880F80
:100A1000991F820F931FFC01EF58FF4F808188239D
:100A200019F380916A00282F30E0C901880F991FBF
:100A3000880F991F880F991F820F931F8F589F4F00
:100A40009A838983E981FA810180F281E02D828194
:100A50009381E981FA8192838183E981FA812181FD
:100A6000328189819A8103962817390759F4E981DF
:100A7000FA810180F281E02D82819381E981FA81FE
:100A800092838183E981FA810180F281E02D868160
:100A900097819093690080936800E0916800F091DD
:100AA0006900408151818091680090916900E091D6
:100AB0006800F09169002789622FFA0109950F906B
:100AC0000F90CF91DF910895DF93CF930F92CDB721
:100AD000DEB7198213C08981282F30E0C901880F41
:100AE000991F880F991F880F991F820F931F8F5886
:100AF0009F4F0E94410689818F5F8983898182305F
:100B000050F383E890E00E9441068CE890E00E9458
:100B1000410689E990E00E94410683E890E09093C5
:100B20009600809395008CE890E0909398008093D5
:100B300097000F90CF91DF910895DF93CF9300D06E
:100B400000D00F92CDB7DEB79D838C83EC81FD8101
:100B50000580F681E02D868197819B838A838A8137
:100B60009B810C960E9433078A819B819C01245FA4
:100B70003F4F89E990E0B9010E947B06EA81FB8141
:100B80009689E0916800F09169008689981718F0BD
:100B900081E0898301C0198289810F900F900F90A5
:100BA0000F900F90CF91DF910895DF93CF9300D0F6
:100BB00000D0CDB7DEB79C838B831A8219820E9446
:100BC000B5118091A2009091A3002B813C81820FEE
:100BD000931F22E08835920718F52091A2003091EA
:100BE000A3008B819C81280F391F8091A2009091D6
:100BF000A30082179307A0F48091A2009091A30014
:100C00008C559F4F9A8389832091A2003091A30035
:100C10008B819C81820F931F9093A3008093A200ED
:100C20000E94C11189819A810F900F900F900F90AF
:100C3000CF91DF910895DF93CF9300D0CDB7DEB78A
:100C40009A8389830F900F90CF91DF910895DF935E
:100C5000CF93CDB7DEB71092A3001092A200CF9130
:100C6000DF910895DF93CF93CDB7DEB72091A20037
:100C70003091A30088E592E0821B930BCF91DF9126
:100C80000895DF93CF9300D0CDB7DEB79A838983E1
:100C900089819A810396E981FA8192838183E9812E
:100CA000FA818FEF9FEF9483838389819A810396E2
:100CB000E981FA819683858389819A810396E98106
:100CC000FA8190878783E981FA8110820F900F90D3
:100CD000CF91DF910895DF93CF9300D0CDB7DEB7EA
:100CE0009A838983E981FA81118610860F900F908B
:100CF000CF91DF910895DF93CF9300D000D000D043
:100D0000CDB7DEB79C838B837E836D83EB81FC81C3
:100D1000818192819A838983E981FA818281938199
:100D2000ED81FE8193838283EB81FC8181819281BD
:100D3000ED81FE8195838483E981FA810280F381CC
:100D4000E02D8D819E81958384838D819E81E981B3
:100D5000FA81938382838D819E81EB81FC819283D2
:100D60008183ED81FE818B819C8191878087EB81DE
:100D7000FC8180818F5FEB81FC81808326960FB69A
:100D8000F894DEBF0FBECDBFCF91DF910895DF9302
:100D9000CF93CDB7DEB728970FB6F894DEBF0FBE5E
:100DA000CDBF9E838D8378876F83EF81F8858081A7
:100DB00091819A83898389819A812FEF8F3F92074E
:100DC00039F4ED81FE81878190859C838B8318C0E7
:100DD0008D819E8103969C838B8306C0EB81FC8171
:100DE000828193819C838B83EB81FC810280F381E0
:100DF000E02D2081318189819A818217930770F7D4
:100E0000EB81FC8182819381EF81F88593838283DA
:100E1000EF81F8850280F381E02D8F81988595839D
:100E20008483EF81F8858B819C81958384838F8176
:100E30009885EB81FC8193838283EF81F8858D8196
:100E40009E8191878087ED81FE8180818F5FED811A
:100E5000FE81808328960FB6F894DEBF0FBECDBF0B
:100E6000CF91DF910895DF93CF9300D000D0CDB71D
:100E7000DEB79C838B83EB81FC81A281B381EB8104
:100E8000FC818481958115969C938E931497EB81B8
:100E9000FC81A481B581EB81FC81828193811396D1
:100EA0009C938E931297EB81FC81808591859A8328
:100EB0008983E981FA81218132818B819C81281784
:100EC000390741F4EB81FC8184819581E981FA81C4
:100ED00092838183EB81FC8111861086E981FA81FE
:100EE00080818150E981FA8180830F900F900F906B
:100EF0000F90CF91DF910895AF92BF92CF92DF9282
:100F0000EF92FF920F93DF93CF93CDB7DEB78DEBC8
:100F100097E060E070E044E650E020E030E000E080
:100F2000EE24FF24CC24DD24AA24BB240E94790FC4
:100F300080EE97E060E070E044E650E020E030E0D2
:100F400001E0EE24FF24CC24DD24AA24BB240E944B
:100F5000790F83E098E060E070E044E650E020E044
:100F600030E002E0EE24FF24CC24DD24AA24BB24BC
:100F70000E94790F0E947211FFCFDF93CF9300D0B0
:100F80000F92CDB7DEB79A83898380E060E041E0BD
:100F90000E9449009091FC0280E060E0492F0E948D
:100FA00004018091FC021B82882311F481E08B8371
:100FB0008B818093FC0288EE93E00E943D11EACF82
:100FC000DF93CF9300D00F92CDB7DEB79A8389839A
:100FD00080E061E041E00E9449009091FD0280E0E4
:100FE00061E0492F0E9404018091FD021B82882349
:100FF00011F481E08B838B818093FD0280ED97E07B
:101000000E943D11EACFDF93CF9300D00F92CDB76E
:10101000DEB79A83898380E062E041E00E94490064
:101020009091FE0280E062E0492F0E9404018091CD
:10103000FE021B82882311F481E08B838B818093D5
:10104000FE0288EB9BE00E943D11EACFDF93CF9335
:10105000CDB7DEB728970FB6F894DEBF0FBECDBF71
:101060009C838B837E836D8358874F83EB81FC81C8
:1010700081E180838B819C8101979C838B83EB81B1
:10108000FC8182E280838B819C8101979C838B838E
:10109000EB81FC8183E380838B819C8101979C831E
:1010A0008B838D819E819A8389838981EB81FC81E9
:1010B00080838B819C8101979C838B8389819A811A
:1010C000892F99279A8389838981EB81FC81808389
:1010D0008B819C8101979C838B83EB81FC811082A7
:1010E0008B819C8101979C838B83EB81FC8180E8C1
:1010F00080838B819C8101979C838B83EB81FC8116
:1011000010828B819C8101979C838B83EB81FC8176
:1011100082E080838B819C8101979C838B83EB8110
:10112000FC8183E080838B819C8101979C838B83EE
:10113000EB81FC8184E080838B819C8101979C837F
:101140008B83EB81FC8185E080838B819C8101977F
:101150009C838B83EB81FC8186E080838B819C81E7
:1011600001979C838B83EB81FC8187E080838B815B
:101170009C8101979C838B83EB81FC8188E0808339
:101180008B819C8101979C838B83EB81FC8189E01F
:1011900080838B819C8101979C838B83EB81FC8175
:1011A00080E180838B819C8101979C838B83EB8181
:1011B000FC8181E180838B819C8101979C838B835F
:1011C000EB81FC8182E180838B819C8101979C83F0
:1011D0008B83EB81FC8183E180838B819C810197F0
:1011E0009C838B83EB81FC8184E180838B819C8158
:1011F00001979C838B83EB81FC8185E180838B81CC
:101200009C8101979C838B83EB81FC8186E18083A9
:101210008B819C8101979C838B83EB81FC8187E18F
:1012200080838B819C8101979C838B83EB81FC81E4
:1012300088E180838B819C8101979C838B83EB81E8
:10124000FC8189E180838B819C8101979C838B83C6
:10125000EB81FC8180E280838B819C8101979C8360
:101260008B83EB81FC8181E280838B819C81019760
:101270009C838B83EB81FC8182E280838B819C81C8
:1012800001979C838B83EB81FC8183E280838B813C
:101290009C8101979C838B838F8198859A83898316
:1012A0008981EB81FC8180838B819C8101979C8368
:1012B0008B8389819A81892F99279A838983898150
:1012C000EB81FC8180838B819C8101979C838B8344
:1012D000EB81FC8186E280838B819C8101979C83DA
:1012E0008B83EB81FC8187E280838B819C810197DA
:1012F0009C838B83EB81FC8188E280838B819C8142
:1013000001979C838B83EB81FC8189E280838B81B5
:101310009C8101979C838B83EB81FC8180E380839C
:101320008B819C8101979C838B83EB81FC8181E382
:1013300080838B819C8101979C838B838B819C8193
:1013400028960FB6F894DEBF0FBECDBFCF91DF91C8
:101350000895DF93CF93CDB7DEB70E94990AA0918D
:10136000FF02B0910003CD91CDBFDD91DEBFFF91B3
:10137000EF91DF91CF91BF91AF919F918F917F912D
:101380006F915F914F913F912F911F910F91FF901E
:10139000EF90DF90CF90BF90AF909F908F907F9015
:1013A0006F905F904F903F902F901F900F900FBEC7
:1013B0000F90089581E0CF91DF910895DF93CF934F
:1013C000CDB7DEB7CF91DF9108950F920FB6F894A5
:1013D0000F921F9211242F923F924F925F926F9221
:1013E0007F928F929F92AF92BF92CF92DF92EF92B5
:1013F000FF920F931F932F933F934F935F936F939E
:101400007F938F939F93AF93BF93CF93DF93EF938C
:10141000FF93A091FF02B09100030DB60D920EB69E
:101420000D920E945513A091FF02B0910003CD913F
:10143000CDBFDD91DEBFFF91EF91DF91CF91BF91E5
:10144000AF919F918F917F916F915F914F913F915C
:101450002F911F910F91FF90EF90DF90CF90BF9051
:10146000AF909F908F907F906F905F904F903F9044
:101470002F901F900F900FBE0F9008950F920FB6F0
:10148000F8940F921F9211242F923F924F925F92E5
:101490006F927F928F929F92AF92BF92CF92DF9284
:1014A000EF92FF920F931F932F933F934F935F936E
:1014B0006F937F938F939F93AF93BF93CF93DF935C
:1014C000EF93FF93A091FF02B09100030DB60D9230
:1014D0000EB60D920E9480120E945513A091FF0239
:1014E000B0910003CD91CDBFDD91DEBFFF91EF91B3
:1014F000DF91CF91BF91AF919F918F917F916F912C
:101500005F914F913F912F911F910F91FF90EF901D
:10151000DF90CF90BF90AF909F908F907F906F9013
:101520005F904F903F902F901F900F900FBE0F90A5
:101530000895DF93CF9300D000D000D0CDB7DEB7B1
:1015400080E49FE1A0E0B0E08B839C83AD83BE8309
:101550008B819C81AD81BE81689415F8B695A79565
:10156000979587951694D1F78B839C83AD83BE8323
:101570008B819C81AD81BE810197A109B1098B83CB
:101580009C83AD83BE838B8189838B819C81AD815C
:10159000BE81892F9A2FAB2FBB278B839C83AD8372
:1015A000BE838B818A83EBE4F0E08A818083EAE466
:1015B000F0E0898180838BE08983EEE4F0E089812B
:1015C0008083E9E5F0E08081898389818061898376
:1015D000E9E5F0E08981808326960FB6F894DEBFB6
:1015E0000FBECDBFCF91DF9108950E943E0A18959E
:1015F000DF93CF93CDB7DEB728970FB6F894DEBF51
:101600000FBECDBF8F8368871A8219828F8188238E
:1016100009F48CC08FE190E00E94D5059E838D83F4
:101620008D819E81009709F481C08F81282F30E041
:101630008885882F90E0AC01249FC001259F900DE4
:10164000349F900D112401969C838B838B819C8108
:101650000E94D505ED81FE8191838083ED81FE811D
:1016600080819181009709F45DC0ED81FE81408108
:1016700051818F81282F30E08885882F90E0BC0130
:10168000269FC001279F900D369F900D1124840F37
:10169000951FED81FE8193838283ED81FE81128E01
:1016A000ED81FE8180819181ED81FE81958384832E
:1016B000ED81FE81408151818F81882F90E09C01D6
:1016C000215030408885882F90E0BC01269FC001C2
:1016D000279F900D369F900D1124840F951FED814B
:1016E000FE8197838683ED81FE818F81838FED81DB
:1016F000FE818885848FED81FE818FEF858FED815E
:10170000FE818FEF868F8D819E8108960E94410613
:101710008D819E8141960E9441068D819E819A8392
:10172000898304C08D819E810E941B0689819A81D4
:1017300028960FB6F894DEBF0FBECDBFCF91DF91D4
:101740000895DF93CF93CDB7DEB72C970FB6F894FB
:10175000DEBF0FBECDBF9E838D8378876F835A8790
:1017600049872B8719820FB6F8940F92ED81FE817D
:10177000928DED81FE81838D9817D8F48D819E81A5
:101780002F813885B9014B850E94DC0DED81FE81EA
:101790008189882349F08D819E8141960E94F113B1
:1017A000813011F40E94E5090F900FBE81E08C8713
:1017B0005CC089859A85009721F40F900FBE1C8626
:1017C00054C08981882331F4CE0102960E945914B5
:1017D00081E089830F900FBE0E94B5110FB6F89477
:1017E0000F92ED81FE81858D8F3F19F4ED81FE8191
:1017F000158EED81FE81868D8F3F19F4ED81FE817E
:10180000168E0F900FBECE0102969E01275F3F4FAE
:10181000B9010E947214882309F58D819E810E946E
:10182000400F8823A1F08D819E81089629853A85F5
:10183000B9010E94BB138D819E810E94B90E0E9446
:10184000C111882309F08FCF0E94E5098CCF8D81CB
:101850009E810E94B90E0E94C11185CF8D819E810B
:101860000E94B90E0E94C1111C868C852C960FB661
:10187000F894DEBF0FBECDBFCF91DF910895DF9307
:10188000CF93CDB7DEB729970FB6F894DEBF0FBE62
:10189000CDBF9C838B837E836D8358874F8329873D
:1018A0001982EB81FC81928DEB81FC81838D9817ED
:1018B00040F58B819C812D813E81B90149850E9433
:1018C000DC0DEB81FC81868D8F3F89F4EB81FC81FF
:1018D0008189882399F08B819C8141960E94F11324
:1018E000882361F0EF81F88581E0808307C0EB8178
:1018F000FC81868D8F5FEB81FC81868F81E08A83FE
:1019000001C01A828A8129960FB6F894DEBF0FBEF5
:10191000CDBFCF91DF910895DF93CF93CDB7DEB7E1
:101920002E970FB6F894DEBF0FBECDBF98878F837A
:101930007A8769875C874B872D871B820FB6F8945F
:101940000F92EF81F885828D882309F43FC0EF81E3
:10195000F885868197819A8389838F8198852985E7
:101960003A85B9010E94710E8D858823B1F4EF810B
:10197000F885828D8150EF81F885828FEF81F8851F
:1019800080858823F1F08F81988508960E94F11355
:101990008130B9F40E94E50914C0EF81F88589818E
:1019A0009A8197838683EF81F8858189882349F01E
:1019B0008F81988541960E94F113882311F00E942F
:1019C000E5090F900FBE81E08E875CC08B859C85FA
:1019D000009721F40F900FBE1E8654C08B81882380
:1019E00031F4CE0104960E94591481E08B830F904C
:1019F0000FBE0E94B5110FB6F8940F92EF81F885D3
:101A0000858D8F3F19F4EF81F885158EEF81F8856C
:101A1000868D8F3F19F4EF81F885168E0F900FBEDB
:101A2000CE0104969E01255F3F4FB9010E947214BA
:101A3000882309F58F8198850E940D0F8823A1F0D6
:101A40008F81988541962B853C85B9010E94BB13F7
:101A50008F8198850E94B90E0E94C111882309F0D8
:101A60006DCF0E94E5096ACF8F8198850E94B90EDB
:101A70000E94C11163CF8F8198850E94B90E0E9488
:101A8000C1111E868E852E960FB6F894DEBF0FBE4E
:101A9000CDBFCF91DF910895DF93CF93CDB7DEB760
:101AA00028970FB6F894DEBF0FBECDBF9C838B8303
:101AB0007E836D8358874F831982EB81FC81828DF1
:101AC000882371F18B819C812D813E81B9010E9417
:101AD000710EEB81FC81828D8150EB81FC81828FC4
:101AE000EB81FC81858D8F3F89F4EB81FC818085C2
:101AF000882399F08B819C8108960E94F11388239A
:101B000061F0EF81F88581E0808307C0EB81FC8183
:101B1000858D8F5FEB81FC81858F81E08A8301C099
:101B20001A828A8128960FB6F894DEBF0FBECDBF09
:101B3000CF91DF910895DF93CF9300D00F92CDB76F
:101B4000DEB79B838A830FB6F8940F92EA81FB81FC
:101B5000828D89830F900FBE89810F900F900F9017
:101B6000CF91DF910895DF93CF9300D00F92CDB73F
:101B7000DEB79B838A83EA81FB81828D8983898199
:101B80000F900F900F90CF91DF910895DF93CF9337
:101B900000D0CDB7DEB79A838983E981FA8180814D
:101BA00091810E941B0689819A810E941B060F90D9
:101BB0000F90CF91DF910895DF93CF9300D000D0A5
:101BC0000F92CDB7DEB79A8389837C836B834D8375
:101BD000E981FA81848D882309F474C08D8188237A
:101BE00099F5E981FA8164817581E981FA81848DB1
:101BF000482F50E02B813C81CB01B9010E94641633
:101C0000E981FA8124813581E981FA81848D882FE7
:101C100090E0820F931FE981FA8195838483E981A3
:101C2000FA8124813581E981FA81828193812817A3
:101C3000390708F447C0E981FA8180819181E981FF
:101C4000FA81958384833EC0E981FA816681778138
:101C5000E981FA81848D482F50E02B813C81CB01B2
:101C6000B9010E946416E981FA8126813781E981F0
:101C7000FA81848D882F90E0909581959F4F820FF7
:101C8000931FE981FA8197838683E981FA8126810E
:101C90003781E981FA81808191812817390790F491
:101CA000E981FA8122813381E981FA81848D882F4B
:101CB00090E0909581959F4F820F931FE981FA8163
:101CC00097838683E981FA81828D8F5FE981FA812A
:101CD000828F0F900F900F900F900F90CF91DF9108
:101CE0000895DF93CF9300D000D0CDB7DEB79A83AD
:101CF00089837C836B83E981FA818081918100975C
:101D000089F1E981FA8126813781E981FA81848D1F
:101D1000882F90E0820F931FE981FA819783868351
:101D2000E981FA8126813781E981FA818281938173
:101D30002817390740F0E981FA8180819181E98192
:101D4000FA8197838683E981FA8146815781E98107
:101D5000FA81848D282F30E08B819C81BA01A90102
:101D60000E9464160F900F900F900F90CF91DF910B
:101D70000895DF93CF9300D0CDB7DEB79A838983E0
:101D80000FB6F8940F9215C0E981FA8181898823F2
:101D9000A9F089819A8141960E94F113882311F05C
:101DA0000E94CF14E981FA81868D8150E981FA8100
:101DB000868FE981FA81868D181634F3E981FA81DC
:101DC0008FEF868F0F900FBE0FB6F8940F9215C04D
:101DD000E981FA8180858823A9F089819A81089612
:101DE0000E94F113882311F00E94CF14E981FA8137
:101DF000858D8150E981FA81858FE981FA81858D10
:101E0000181634F3E981FA818FEF858F0F900FBE9A
:101E10000F900F90CF91DF910895DF93CF9300D073
:101E20000F92CDB7DEB79B838A830FB6F8940F92DB
:101E3000EA81FB81828D1982882311F481E08983F4
:101E40000F900FBE89810F900F900F90CF91DF916F
:101E50000895DF93CF9300D00F92CDB7DEB79B8369
:101E60008A83EA81FB81828D1982882311F481E0C3
:101E7000898389810F900F900F90CF91DF91089502
:101E8000DF93CF9300D00F92CDB7DEB79B838A83C9
:101E90000FB6F8940F92EA81FB81928DEA81FB8163
:101EA000838D1982981711F481E089830F900FBEFA
:101EB00089810F900F900F90CF91DF910895DF935C
:101EC000CF9300D00F92CDB7DEB79B838A83EA8190
:101ED000FB81928DEA81FB81838D1982981711F421
:101EE00081E0898389810F900F900F90CF91DF91CE
:101EF0000895AF92BF92CF92DF92EF92FF920F932D
:101F00001F93DF93CF93CDB7DEB764970FB6F894E6
:101F1000DEBF0FBECDBF9F838E83798768875B87C7
:101F20004A873D872C870E87F88AEF86DA8AC98A26
:101F3000BC8AAB8A8A859B8529893A89B9010E9426
:101F4000FE159C838B838B819C81009709F499C03B
:101F5000EB81FC812789308D8A859B850197820FD3
:101F6000931F9A8389838B819C8128853985EB898E
:101F7000FC89AA85BB85B9014E859F018D010E9410
:101F8000E31489819A812E813F814C855D85B90159
:101F90000E942608EB81FC81918380838F8598893C
:101FA000009731F0EF85F8898B819C819183808344
:101FB0000FB6F8940F92809102038F5F8093020313
:101FC0008091FF0290910003009769F48B819C81BE
:101FD000909300038093FF02809102038130A9F463
:101FE0000E943A1512C080910703882371F4E09192
:101FF000FF02F091000396898E85891730F08B815E
:102000009C81909300038093FF02EB81FC81968971
:1020100080910503891728F4EB81FC8186898093E0
:10202000050380910C038F5F80930C03EB81FC818F
:10203000968980910603891728F4EB81FC818689B3
:1020400080930603EB81FC818689282F30E0C9014B
:10205000880F991F880F991F880F991F820F931F50
:10206000AC01435F5C4F8B819C819C012E5F3F4F95
:10207000CA01B9010E947B0681E08D830F900FBEDB
:1020800002C08FEF8D838D81813071F480910703C1
:10209000882351F0E091FF02F091000396898E852C
:1020A000981710F40E94E5098D8164960FB6F89494
:1020B000DEBF0FBECDBFCF91DF911F910F91FF907B
:1020C000EF90DF90CF90BF90AF900895DF93CF93C4
:1020D00000D000D000D0CDB7DEB79C838B830FB685
:1020E000F8940F922091FF02309100038B819C8124
:1020F0008217930711F41C821B828B819C810097AD
:1021000039F48091FF02909100039E838D8304C077
:102110008B819C819E838D838D819E819A8389830F
:1021200089819A8102960E943307E981FA81848924
:102130009589009729F089819A810C960E9433072E
:1021400089819A819C012E5F3F4F89E593E0B90117
:102150000E947B06809101038F5F80930103809131
:102160000C038F5F80930C030F900FBE80910703C9
:10217000882331F08B819C81009711F40E94E5093E
:1021800026960FB6F894DEBF0FBECDBFCF91DF917C
:102190000895DF93CF93CDB7DEB728970FB6F894A5
:1021A000DEBF0FBECDBF9E838D8378876F8319827C
:1021B0000E94B511ED81FE81208131818F8198854A
:1021C000820F931F9C838B83ED81FE81208131815F
:1021D000809103039091040382179307A8F4ED8183
:1021E000FE81208131818B819C818217930700F5CC
:1021F00020910303309104038B819C8128173907B8
:10220000B8F481E0898314C0ED81FE8120813181A1
:102210008B819C818217930748F0209103033091B2
:1022200004038B819C812817390710F481E089838E
:10223000ED81FE818B819C819183808389818823BC
:1022400059F08091FF029091000302960E9433079B
:102250008B819C810E94B5150E94C1118A838A815D
:10226000882311F40E94E50928960FB6F894DEBF82
:102270000FBECDBFCF91DF910895DF93CF9300D0F4
:1022800000D00F92CDB7DEB79D838C8319828C81ED
:102290009D810097D1F00E94B511209103033091E8
:1022A00004038C819D81820F931F9B838A8380917D
:1022B000FF029091000302960E9433078A819B815E
:1022C0000E94B5150E94C11189838981882311F468
:1022D0000E94E5090F900F900F900F900F90CF91F3
:1022E000DF910895AF92BF92CF92DF92EF92FF926B
:1022F0000F93DF93CF930F92CDB7DEB720E630E098
:1023000089ED94E1B90145E550E020E030E000E0DE
:10231000EE24FF24CC24DD24AA24BB240E94790FC0
:1023200089838981813051F4F89481E08093070397
:1023300010920403109203030E94A9090F90CF91F9
:10234000DF910F91FF90EF90DF90CF90BF90AF9013
:102350000895DF93CF93CDB7DEB7F89410920703BB
:102360000E94DE09CF91DF910895DF93CF93CDB71F
:10237000DEB7809108038F5F80930803CF91DF91D0
:102380000895DF93CF9300D000D0CDB7DEB71A8287
:102390000FB6F8940F928091080381508093080340
:1023A00080910803882309F06CC080910203882380
:1023B00009F467C0198241C0E0915503F0915603BA
:1023C000868197819C838B838B819C810C960E9454
:1023D00033078B819C8102960E943307EB81FC813D
:1023E000968980910603891728F4EB81FC81868900
:1023F00080930603EB81FC818689282F30E0C90198
:10240000880F991F880F991F880F991F820F931F9C
:10241000835F9C4F2B813C812E5F3F4FB9010E940F
:102420007B06EB81FC819689E091FF02F09100032D
:102430008689981710F081E0898380915003882362
:1024400009F0BACF80910903882371F007C00E9478
:1024500080128091090381508093090380910903C0
:102460008823A9F781E089838981813021F08091D7
:102470000A03813031F481E08A8310920A030E94BA
:10248000E5090F900FBE8A810F900F900F900F906B
:10249000CF91DF910895DF93CF9300D0CDB7DEB712
:1024A0000FB6F8940F9280910303909104039A83DE
:1024B00089830F900FBE89819A810F900F90CF91E1
:1024C000DF910895DF93CF9300D00F92CDB7DEB7A1
:1024D000198280910303909104039B838A838A81EC
:1024E0009B810F900F900F90CF91DF910895DF9314
:1024F000CF93CDB7DEB780910203CF91DF910895DE
:10250000DF93CF9300D000D000D0CDB7DEB780915D
:102510000803882309F0BBC0809103039091040352
:102520000196909304038093030380910303909199
:1025300004030097D1F580914C0390914D039C8347
:102540008B8380914E0390914F0390934D03809322
:102550004C038B819C8190934F0380934E03809119
:102560000B038F5F80930B03E0914C03F0914D03BD
:102570008081882339F48FEF9FEF909366008093DA
:10258000650013C0E0914C03F0914D030580F68186
:10259000E02D868197819E838D83ED81FE818281EE
:1025A000938190936600809365002091030330919E
:1025B000040380916500909166002817390708F49C
:1025C0006BC0E0914C03F0914D038081882339F476
:1025D0008FEF9FEF90936600809365005DC0E09160
:1025E0004C03F0914D030580F681E02D86819781A3
:1025F0009E838D83ED81FE81828193819A8389837D
:10260000209103033091040389819A8128173907A7
:1026100038F489819A8190936600809365003CC06C
:102620008D819E8102960E943307ED81FE8184890F
:102630009589009729F08D819E810C960E94330721
:10264000ED81FE81968980910603891728F4ED813A
:10265000FE81868980930603ED81FE818689282F7D
:1026600030E0C901880F991F880F991F880F991FA3
:10267000820F931FAC01435F5C4F8D819E819C0153
:102680002E5F3F4FCA01B9010E947B069ACF80910D
:1026900009038F5F8093090326960FB6F894DEBF77
:1026A0000FBECDBFCF91DF910895DF93CF9300D0C0
:1026B000CDB7DEB780910803882349F081E080938D
:1026C0000A0354C0809106038150809306038091D1
:1026D0000603282F30E0C901880F991F880F991F22
:1026E000880F991F820F931FFC01E35FFC4F8081CD
:1026F000882341F380910603282F30E0C901880F19
:10270000991F880F991F880F991F820F931F835F4E
:102710009C4F9A838983E981FA810180F281E02DBF
:1027200082819381E981FA8192838183E981FA81AF
:102730002181328189819A8103962817390759F4BA
:10274000E981FA810180F281E02D82819381E98122
:10275000FA8192838183E981FA810180F281E02DFF
:1027600086819781909300038093FF020F900F90D2
:10277000CF91DF910895DF93CF9300D000D000D0A8
:10278000CDB7DEB79C838B837E836D834B815C8169
:102790008091FF02909100039C01245F3F4FCA018A
:1027A000B9010E94C7068091FF0290910003029632
:1027B0000E94330720910303309104038D819E8191
:1027C000820F931F9A83898389819A810E94B5150C
:1027D00026960FB6F894DEBF0FBECDBFCF91DF9126
:1027E0000895DF93CF9300D000D00F92CDB7DEB71E
:1027F0009D838C83EC81FD810580F681E02D8681AF
:1028000097819B838A838A819B810C960E943307E0
:1028100080910803882361F58A819B8102960E943A
:102820003307EA81FB81968980910603891728F492
:10283000EA81FB81868980930603EA81FB81868990
:10284000282F30E0C901880F991F880F991F880F22
:10285000991F820F931FAC01435F5C4F8A819B815C
:102860009C012E5F3F4FCA01B9010E947B060AC03E
:102870008A819B819C01245F3F4F80E593E0B901F1
:102880000E947B06EA81FB819689E091FF02F0912C
:1028900000038689981718F081E0898301C01982A6
:1028A00089810F900F900F900F900F90CF91DF9133
:1028B0000895DF93CF9300D0CDB7DEB79A83898395
:1028C00080910B03E981FA818083809103039091C9
:1028D0000403E981FA81928381830F900F90CF9155
:1028E000DF910895DF93CF9300D000D00F92CDB742
:1028F000DEB79B838A837D836C830FB6F8940F9237
:10290000EA81FB81908180910B03981771F0EA8135
:10291000FB8121813281809103039091040382170E
:10292000930718F081E089832FC020910303309131
:102930000403EA81FB8181819281281B390BEC81A0
:10294000FD818081918128173907E0F4EC81FD81B8
:1029500040815181EA81FB81218132818091030391
:1029600090910403B901681B790BCB01840F951F6B
:10297000EC81FD81918380838A819B810E9459141F
:10298000198202C081E089830F900FBE89810F9068
:102990000F900F900F900F90CF91DF910895DF93DC
:1029A000CF93CDB7DEB781E080930A03CF91DF915B
:1029B0000895DF93CF9300D0CDB7DEB79A83898394
:1029C0000E947715FDCF0F931F93DF93CF93CDB761
:1029D000DEB729970FB6F894DEBF0FBECDBF9A833E
:1029E00089837C836B834D833F832E83198708877C
:1029F00089819A8149962B813C81B90148E050E058
:102A00000E947416E981FA8110A28D81853010F040
:102A100084E08D83E981FA818D81868B89819A8119
:102A200002960E946B0689819A810C960E946B0621
:102A3000E981FA8189819A81918780878D81282F08
:102A400030E085E090E0821B930BE981FA81958765
:102A50008487E981FA8189819A81938B828B299677
:102A60000FB6F894DEBF0FBECDBFCF91DF911F919F
:102A70000F910895DF93CF930F92CDB7DEB71982F0
:102A800013C08981282F30E0C901880F991F880F52
:102A9000991F880F991F820F931F835F9C4F0E947D
:102AA000410689818F5F89838981853050F38AE36C
:102AB00093E00E94410683E493E00E94410680E592
:102AC00093E00E94410689E593E00E9441068AE373
:102AD00093E090934D0380934C0383E493E09093B1
:102AE0004F0380934E030F90CF91DF910895DF93B2
:102AF000CF9300D00F92CDB7DEB78091010388232A
:102B000071F10E94B511809159031B82882311F441
:102B100081E08B830E94C1118B81882301F50FB660
:102B2000F8940F92E0915E03F0915F0386819781A4
:102B30009A83898389819A8102960E9433078091C2
:102B4000020381508093020380910103815080939E
:102B500001030F900FBE89819A810E944E160F903B
:102B60000F900F90CF91DF910895DF93CF9300D016
:102B7000CDB7DEB79A838983E091FF02F09100031D
:102B800089819A8193838283209103033091040386
:102B900089819A818217930770F480914E039091F6
:102BA0004F032091FF02309100032E5F3F4FB90188
:102BB0000E94C7061EC040914C0350914D03809166
:102BC000FF02909100039C012E5F3F4FCA01B901A3
:102BD0000E94C706209165003091660089819A8124
:102BE0008217930730F489819A81909366008093CD
:102BF00065000F900F90CF91DF910895DF93CF93F1
:102C0000CDB7DEB728970FB6F894DEBF0FBECDBFA5
:102C10009C838B837E836D8381E290E00E94D50547
:102C20009A83898389819A81009769F18D819E8138
:102C3000009739F48B819C810E94D50598878F83FA
:102C400004C08D819E8198878F83E981FA818F816D
:102C50009885908F878BE981FA818789908D00977D
:102C600039F489819A810E941B061A8219820BC04D
:102C7000E981FA818789908D2B813C8165EA70E03A
:102C8000A9010E946D1689819A8128960FB6F89441
:102C9000DEBF0FBECDBFCF91DF910895DF93CF93FD
:102CA00000D0CDB7DEB79A838983E981FA8187891D
:102CB000908D0E941B0689819A810E941B060F90AD
:102CC0000F90CF91DF910895FB01DC0102C00190CC
:102CD0000D9241505040D8F70895DC0101C06D932A
:102CE00041505040E0F70895FB01DC014150504055
:102CF00048F001900D920020C9F701C01D9241508B
:0A2D00005040E0F70895F894FFCF6B
:082D0A0049444C4500FFFF00A5
:00000001FF
