:100000000C942A000C943C000C943C000C943C0092
:100010000C943C000C943C000C943C000C943C0070
:100020000C943C000C943C000C943C000C94B704E1
:100030000C943C000C943C000C943C000C943C0050
:100040000C943C000C943C000C943C000C943C0040
:100050000C943C0011241FBECFE5D8E0DEBFCDBF1D
:1000600010E0A0E6B0E001C01D92A437B107E1F7AF
:100070000E94F3040C948A050C940000DF93CF9344
:1000800000D000D00F92CDB7DEB789836A834B834F
:100090008981282F30E03D832C836C817D81613004
:1000A0007105D1F18C819D818230910534F42C81D0
:1000B0003D812115310571F094C06C817D816230E4
:1000C000710509F44BC08C819D818330910509F441
:1000D00067C087C0AAE3B0E0EAE3F0E08081482F80
:1000E0008A81282F30E081E090E002C0880F991FBC
:1000F0002A95E2F7809548238B81282F30E08A816A
:10010000882F90E0B90102C0660F771F8A95E2F749
:10011000CB01842B8C9365C0A7E3B0E0E7E3F0E06C
:100120008081482F8A81282F30E081E090E002C052
:10013000880F991F2A95E2F7809548238B81282FF5
:1001400030E08A81882F90E0B90102C0660F771FE6
:100150008A95E2F7CB01842B8C9343C0A4E3B0E0F3
:10016000E4E3F0E08081482F8A81282F30E081E0AD
:1001700090E002C0880F991F2A95E2F780954823E6
:100180008B81282F30E08A81882F90E0B90102C04E
:10019000660F771F8A95E2F7CB01842B8C9321C0E1
:1001A000A1E3B0E0E1E3F0E08081482F8A81282FCD
:1001B00030E081E090E002C0880F991F2A95E2F7B5
:1001C000809548238B81282F30E08A81882F90E00A
:1001D000B90102C0660F771F8A95E2F7CB01842B25
:1001E0008C930F900F900F900F900F90CF91DF9105
:1001F0000895DF93CF9300D000D00F92CDB7DEB734
:1002000089836A834B838981282F30E03D832C8347
:100210006C817D8161307105D1F18C819D8182304D
:10022000910534F42C813D812115310571F094C084
:100230006C817D816230710509F44BC08C819D8198
:100240008330910509F467C087C0ABE3B0E0EBE30E
:10025000F0E08081482F8A81282F30E081E090E013
:1002600002C0880F991F2A95E2F7809548238B8159
:10027000282F30E08A81882F90E0B90102C0660FF4
:10028000771F8A95E2F7CB01842B8C9365C0A8E396
:10029000B0E0E8E3F0E08081482F8A81282F30E049
:1002A00081E090E002C0880F991F2A95E2F78095BF
:1002B00048238B81282F30E08A81882F90E0B90174
:1002C00002C0660F771F8A95E2F7CB01842B8C93CF
:1002D00043C0A5E3B0E0E5E3F0E08081482F8A81E8
:1002E000282F30E081E090E002C0880F991F2A9506
:1002F000E2F7809548238B81282F30E08A81882F70
:1003000090E0B90102C0660F771F8A95E2F7CB0132
:10031000842B8C9321C0A2E3B0E0E2E3F0E0808183
:10032000482F8A81282F30E081E090E002C0880FBA
:10033000991F2A95E2F7809548238B81282F30E07A
:100340008A81882F90E0B90102C0660F771F8A95D5
:10035000E2F7CB01842B8C930F900F900F900F90AE
:100360000F90CF91DF910895DF93CF9300D000D00D
:100370000F92CDB7DEB78A836B8319828A81282FCB
:1003800030E03D832C834C815D814130510541F14A
:100390008C819D818230910534F42C813D81211521
:1003A000310561F052C04C815D814230510551F1FF
:1003B0008C819D8183309105B9F147C0E9E3F0E07C
:1003C0008081282F30E08B81882F90E0A90102C026
:1003D000559547958A95E2F7CA018170898335C0A2
:1003E000E6E3F0E08081282F30E08B81882F90E0D9
:1003F000A90102C0559547958A95E2F7CA01817017
:10040000898323C0E3E3F0E08081282F30E08B81F3
:10041000882F90E0A90102C0559547958A95E2F78B
:10042000CA018170898311C0E0E3F0E08081282F48
:1004300030E08B81882F90E0A90102C05595479547
:100440008A95E2F7CA018170898389810F900F90A4
:100450000F900F900F90CF91DF910895DF93CF937E
:1004600000D000D0CDB7DEB789836A838981282F79
:1004700030E03C832B838B819C8181309105D1F0CE
:100480002B813C81223031052CF48B819C8100979B
:1004900061F01EC02B813C812230310581F08B81BF
:1004A0009C818330910581F013C0EAE3F0E08A81FA
:1004B00080830EC0E7E3F0E08A81808309C0E4E333
:1004C000F0E08A81808304C0E1E3F0E08A818083E8
:1004D0000F900F900F900F90CF91DF910895DF93C1
:1004E000CF9300D000D0CDB7DEB789836A838981EE
:1004F000282F30E03C832B838B819C8181309105B8
:10050000D1F02B813C81223031052CF48B819C81F0
:10051000009761F01EC02B813C812230310581F0B3
:100520008B819C818330910581F013C0EBE3F0E077
:100530008A8180830EC0E8E3F0E08A81808309C06D
:10054000E5E3F0E08A81808304C0E2E3F0E08A81A1
:1005500080830F900F900F900F90CF91DF910895AF
:10056000DF93CF9300D000D0CDB7DEB78A83198256
:100570008A81282F30E03C832B838B819C818130C2
:100580009105D1F02B813C81223031052CF48B81F7
:100590009C81009761F01EC02B813C812230310587
:1005A00081F08B819C818330910581F013C0E9E358
:1005B000F0E0808189830EC0E6E3F0E080818983EA
:1005C00009C0E3E3F0E08081898304C0E0E3F0E068
:1005D0008081898389810F900F900F900F90CF9128
:1005E000DF910895DF93CF93CDB7DEB7AFE5B0E0ED
:1005F000EFE5F0E0808180688C93CF91DF910895E2
:10060000DF93CF93CDB7DEB7AFE5B0E0EFE5F0E035
:1006100080818F778C93CF91DF910895DF93CF9373
:100620000F92CDB7DEB78091600090916100019686
:1006300090936100809360008091600090916100D0
:100640002BE0883B920721F4109261001092600029
:10065000198227C08981882F90E0880F991F880F01
:10066000991FFC01EA59FF4F808191812091600020
:1006700030916100B9010E947605009779F4898173
:10068000882F90E0880F991F0196880F991FFC0111
:10069000EA59FF4F0190F081E02D099589818F5F24
:1006A000898389818330B0F20F90CF91DF910895D3
:1006B000DF93CF93CDB7DEB781E061E048E10E94E0
:1006C00099038EE093E00E94A504CF91DF910895F5
:1006D000DF93CF9300D000D00F92CDB7DEB78983E0
:1006E0007B836A835D834C838981882F90E0880FA8
:1006F000991F880F991FFC01EA59FF4F8A819B813E
:10070000918380838981882F90E0880F991F0196BB
:10071000880F991FFC01EA59FF4F8C819D819183BD
:1007200080830F900F900F900F900F90CF91DF91DB
:100730000895DF93CF9300D00F92CDB7DEB78983B2
:100740006A834B83A8E5B0E0E8E5F0E08081816052
:100750008C9389818130D1F4A3E5B0E0E3E5F0E04A
:1007600080818F7B8C93A3E5B0E0E3E5F0E08081AE
:10077000877F8C93A9E5B0E0E9E5F0E080818160B6
:100780008C93E2E5F0E08B81808347C089818230E1
:1007900079F4A3E5B0E0E3E5F0E080818F7B8C9312
:1007A000A3E5B0E0E3E5F0E0808188608C9335C09C
:1007B0008981833079F4A3E5B0E0E3E5F0E080815E
:1007C00080648C93A3E5B0E0E3E5F0E08081877F6F
:1007D0008C9323C08981843001F5A3E5B0E0E3E583
:1007E000F0E0808188608C93A3E5B0E0E3E5F0E081
:1007F000808180648C93A3E5B0E0E3E5F0E0808144
:100800008F7E8C93A3E5B0E0E3E5F0E08081806229
:100810008C93ECE5F0E086E680838A818823B1F44E
:10082000A3E5B0E0E3E5F0E0808181608C93A3E58F
:10083000B0E0E3E5F0E080818D7F8C93A3E5B0E04C
:10084000E3E5F0E080818B7F8C9379C08A818130F1
:10085000B1F4A3E5B0E0E3E5F0E080818E7F8C9316
:10086000A3E5B0E0E3E5F0E0808182608C93A3E54E
:10087000B0E0E3E5F0E080818B7F8C9360C08A81FB
:100880008230B1F4A3E5B0E0E3E5F0E0808181607F
:100890008C93A3E5B0E0E3E5F0E0808182608C9387
:1008A000A3E5B0E0E3E5F0E080818B7F8C9347C067
:1008B0008A818330B1F4A3E5B0E0E3E5F0E0808124
:1008C0008E7F8C93A3E5B0E0E3E5F0E080818D7F3F
:1008D0008C93A3E5B0E0E3E5F0E0808184608C9345
:1008E0002EC08A818430B1F4A3E5B0E0E3E5F0E006
:1008F000808181608C93A3E5B0E0E3E5F0E0808146
:100900008D7F8C93A3E5B0E0E3E5F0E08081846027
:100910008C9315C0A3E5B0E0E3E5F0E080818E7F25
:100920008C93A3E5B0E0E3E5F0E080818D7F8C93CC
:10093000A3E5B0E0E3E5F0E080818B7F8C930F903E
:100940000F900F90CF91DF910895DF93CF9300D058
:10095000CDB7DEB79A83898389819A81909373009A
:10096000809372000F900F90CF91DF9108951F92A6
:100970000F920FB60F9211242F933F934F935F93D3
:100980006F937F938F939F93AF93BF93EF93FF9357
:10099000DF93CF93CDB7DEB7809162008F5F8093F6
:1009A000620080916200843059F4E0917200F0910D
:1009B00073000995E2E5F0E088E18083109262001F
:1009C000CF91DF91FF91EF91BF91AF919F918F9167
:1009D0007F916F915F914F913F912F910F900FBE3B
:1009E0000F901F901895DF93CF93CDB7DEB780E0BF
:1009F00060E041E00E943E0080E061E041E00E9452
:100A00003E0080E062E041E00E943E0083E060E062
:100A100041E00E943E000E94F20228E235E080E0C0
:100A200068EE73E0A9010E94680322E435E081E0EA
:100A300060ED77E0A9010E9468032CE535E082E0D3
:100A400068EB7BE0A9010E9468030E945803FFCF76
:100A5000DF93CF930F92CDB7DEB79091630080E024
:100A600060E0492F0E94F900809163001982882379
:100A700011F481E089838981809363000F90CF9185
:100A8000DF910895DF93CF930F92CDB7DEB79091AA
:100A9000640080E061E0492F0E94F90080916400C9
:100AA0001982882311F481E089838981809364000D
:100AB0000F90CF91DF910895DF93CF930F92CDB731
:100AC000DEB79091650080E062E0492F0E94F90056
:100AD000809165001982882311F481E089838981DE
:100AE000809365000F90CF91DF910895AA1BBB1BE7
:100AF00051E107C0AA1FBB1FA617B70710F0A61B1E
:100B0000B70B881F991F5A95A9F780959095BC013E
:080B1000CD010895F894FFCF18
:00000001FF
