:100000000C942A000C9447000C9447000C94470071
:100010000C9447000C9447000C9447000C94470044
:100020000C9447000C9447000C9447000C94370440
:100030000C9447000C9447000C9447000C94470024
:100040000C9447000C9447000C9447000C94470014
:100050000C94470011241FBECFE5D8E0DEBFCDBF12
:1000600010E0A0E6B0E0E0E6FFE002C005900D92EF
:10007000A836B107D9F710E0A8E6B0E001C01D929C
:10008000A437B107E1F70E94BF040C94AE070C94AB
:100090000000DF93CF9300D000D00F92CDB7DEB732
:1000A00089836A834B838981282F30E03D832C83A9
:1000B0006C817D8161307105D1F18C819D818230AF
:1000C000910534F42C813D812115310571F094C0E6
:1000D0006C817D816230710509F44BC08C819D81FA
:1000E0008330910509F467C087C0AAE3B0E0EAE372
:1000F000F0E08081482F8A81282F30E081E090E075
:1001000002C0880F991F2A95E2F7809548238B81BA
:10011000282F30E08A81882F90E0B90102C0660F55
:10012000771F8A95E2F7CB01842B8C9365C0A7E3F8
:10013000B0E0E7E3F0E08081482F8A81282F30E0AB
:1001400081E090E002C0880F991F2A95E2F7809520
:1001500048238B81282F30E08A81882F90E0B901D5
:1001600002C0660F771F8A95E2F7CB01842B8C9330
:1001700043C0A4E3B0E0E4E3F0E08081482F8A814B
:10018000282F30E081E090E002C0880F991F2A9567
:10019000E2F7809548238B81282F30E08A81882FD1
:1001A00090E0B90102C0660F771F8A95E2F7CB0194
:1001B000842B8C9321C0A1E3B0E0E1E3F0E08081E7
:1001C000482F8A81282F30E081E090E002C0880F1C
:1001D000991F2A95E2F7809548238B81282F30E0DC
:1001E0008A81882F90E0B90102C0660F771F8A9537
:1001F000E2F7CB01842B8C930F900F900F900F9010
:100200000F90CF91DF910895DF93CF9300D000D06E
:100210000F92CDB7DEB789836A834B838981282FFC
:1002200030E03D832C836C817D8161307105D1F19B
:100230008C819D818230910534F42C813D81211582
:10024000310571F094C06C817D816230710509F4D3
:100250004BC08C819D818330910509F467C087C0B4
:10026000ABE3B0E0EBE3F0E08081482F8A81282FF8
:1002700030E081E090E002C0880F991F2A95E2F7F4
:10028000809548238B81282F30E08A81882F90E049
:10029000B90102C0660F771F8A95E2F7CB01842B64
:1002A0008C9365C0A8E3B0E0E8E3F0E08081482FDC
:1002B0008A81282F30E081E090E002C0880F991FEA
:1002C0002A95E2F7809548238B81282F30E08A8198
:1002D000882F90E0B90102C0660F771F8A95E2F778
:1002E000CB01842B8C9343C0A5E3B0E0E5E3F0E0C1
:1002F0008081482F8A81282F30E081E090E002C081
:10030000880F991F2A95E2F7809548238B81282F23
:1003100030E08A81882F90E0B90102C0660F771F14
:100320008A95E2F7CB01842B8C9321C0A2E3B0E045
:10033000E2E3F0E08081482F8A81282F30E081E0DD
:1003400090E002C0880F991F2A95E2F78095482314
:100350008B81282F30E08A81882F90E0B90102C07C
:10036000660F771F8A95E2F7CB01842B8C930F9051
:100370000F900F900F900F90CF91DF910895DF9322
:10038000CF9300D000D00F92CDB7DEB78A836B83B6
:1003900019828A81282F30E03D832C834C815D8136
:1003A0004130510541F18C819D818230910534F4B9
:1003B0002C813D812115310561F052C04C815D8158
:1003C0004230510551F18C819D8183309105B9F105
:1003D00047C0E9E3F0E08081282F30E08B81882F4F
:1003E00090E0A90102C0559547958A95E2F7CA01A8
:1003F0008170898335C0E6E3F0E08081282F30E00A
:100400008B81882F90E0A90102C0559547958A9568
:10041000E2F7CA018170898323C0E3E3F0E08081C1
:10042000282F30E08B81882F90E0A90102C05595DC
:1004300047958A95E2F7CA018170898311C0E0E38C
:10044000F0E08081282F30E08B81882F90E0A90197
:1004500002C0559547958A95E2F7CA018170898354
:1004600089810F900F900F900F900F90CF91DF9197
:100470000895DF93CF9300D000D0CDB7DEB7898346
:100480006A838981282F30E03C832B838B819C8178
:1004900081309105D1F02B813C81223031052CF443
:1004A0008B819C81009761F01EC02B813C812230A2
:1004B000310581F08B819C818330910581F013C0DF
:1004C000EAE3F0E08A8180830EC0E7E3F0E08A810E
:1004D000808309C0E4E3F0E08A81808304C0E1E323
:1004E000F0E08A8180830F900F900F900F90CF9152
:1004F000DF910895DF93CF9300D000D0CDB7DEB762
:1005000089836A838981282F30E03C832B838B8108
:100510009C8181309105D1F02B813C8122303105C5
:100520002CF48B819C81009761F01EC02B813C8153
:100530002230310581F08B819C818330910581F0DF
:1005400013C0EBE3F0E08A8180830EC0E8E3F0E0C3
:100550008A81808309C0E5E3F0E08A81808304C05A
:10056000E2E3F0E08A8180830F900F900F900F906C
:10057000CF91DF910895DF93CF9300D000D0CDB716
:10058000DEB78A8319828A81282F30E03C832B834F
:100590008B819C8181309105D1F02B813C8122306F
:1005A00031052CF48B819C81009761F01EC02B815A
:1005B0003C812230310581F08B819C818330910513
:1005C00081F013C0E9E3F0E0808189830EC0E6E3A7
:1005D000F0E08081898309C0E3E3F0E080818983D2
:1005E00004C0E0E3F0E08081898389810F900F905F
:1005F0000F900F90CF91DF910895DF93CF93CDB7F8
:10060000DEB7AFE5B0E0EFE5F0E0808180688C9385
:10061000CF91DF910895DF93CF93CDB7DEB7AFE5EC
:10062000B0E0EFE5F0E080818F778C93CF91DF91A0
:100630000895DF93CF9300D00F92CDB7DEB78983B3
:100640006A834B83A8E5B0E0E8E5F0E08081816053
:100650008C9389818130D1F4A3E5B0E0E3E5F0E04B
:1006600080818F7B8C93A3E5B0E0E3E5F0E08081AF
:10067000877F8C93A9E5B0E0E9E5F0E080818160B7
:100680008C93E2E5F0E08B81808347C089818230E2
:1006900079F4A3E5B0E0E3E5F0E080818F7B8C9313
:1006A000A3E5B0E0E3E5F0E0808188608C9335C09D
:1006B0008981833079F4A3E5B0E0E3E5F0E080815F
:1006C00080648C93A3E5B0E0E3E5F0E08081877F70
:1006D0008C9323C08981843001F5A3E5B0E0E3E584
:1006E000F0E0808188608C93A3E5B0E0E3E5F0E082
:1006F000808180648C93A3E5B0E0E3E5F0E0808145
:100700008F7E8C93A3E5B0E0E3E5F0E0808180622A
:100710008C93ECE5F0E086E680838A818823B1F44F
:10072000A3E5B0E0E3E5F0E0808181608C93A3E590
:10073000B0E0E3E5F0E080818D7F8C93A3E5B0E04D
:10074000E3E5F0E080818B7F8C9379C08A818130F2
:10075000B1F4A3E5B0E0E3E5F0E080818E7F8C9317
:10076000A3E5B0E0E3E5F0E0808182608C93A3E54F
:10077000B0E0E3E5F0E080818B7F8C9360C08A81FC
:100780008230B1F4A3E5B0E0E3E5F0E08081816080
:100790008C93A3E5B0E0E3E5F0E0808182608C9388
:1007A000A3E5B0E0E3E5F0E080818B7F8C9347C068
:1007B0008A818330B1F4A3E5B0E0E3E5F0E0808125
:1007C0008E7F8C93A3E5B0E0E3E5F0E080818D7F40
:1007D0008C93A3E5B0E0E3E5F0E0808184608C9346
:1007E0002EC08A818430B1F4A3E5B0E0E3E5F0E007
:1007F000808181608C93A3E5B0E0E3E5F0E0808147
:100800008D7F8C93A3E5B0E0E3E5F0E08081846028
:100810008C9315C0A3E5B0E0E3E5F0E080818E7F26
:100820008C93A3E5B0E0E3E5F0E080818D7F8C93CD
:10083000A3E5B0E0E3E5F0E080818B7F8C930F903F
:100840000F900F90CF91DF910895DF93CF9300D059
:10085000CDB7DEB79A83898389819A8190936D00A1
:1008600080936C000F900F90CF91DF9108951F92AD
:100870000F920FB60F9211242F933F934F935F93D4
:100880006F937F938F939F93AF93BF93EF93FF9358
:10089000DF93CF93CDB7DEB7809168008F5F8093F1
:1008A000680080916800843039F4E0916C00F09128
:1008B0006D00099510926800CF91DF91FF91EF9143
:1008C000BF91AF919F918F917F916F915F914F9168
:1008D0003F912F910F900FBE0F901F901895DF93AF
:1008E000CF9300D0CDB7DEB780916A0090916B00B6
:1008F000019690936B0080936A0080916A009091BA
:100900006B0023E0883E9207A9F5809169008F5F14
:10091000809369009091670081E060E0492F0E9418
:10092000040110926B0010926A00809167001A8295
:10093000882311F481E08A832A8120936700E2E50D
:10094000F0E088E1808380916900823099F4109210
:1009500069009091660081E061E0492F0E940401E6
:10096000809166001982882311F481E089832981AE
:10097000209366000F900F90CF91DF910895DF9341
:10098000CF93CDB7DEB700D0EDB7FEB7319680E696
:1009900090E0918380830E94E5040F900F900E9465
:1009A000FD0281E060E041E00E94490081E061E0F9
:1009B00041E00E94490081E061E048E10E941903A2
:1009C0008FE694E00E942504FFCFA0E0B0E0EBEEBC
:1009D000F4E00C948707FE01359661917191809146
:1009E000700090917100AF010E94FA042096E2E03D
:1009F0000C94A307ABE0B0E0E0E0F5E00C947707DF
:100A00003C012B015A01FC0117821682838181FD72
:100A100003C06FEF7FEFC6C19AE0892E1E010894D4
:100A2000211C311CF3012381F20123FD859123FF59
:100A300081912F01882309F4B2C1853239F423FD55
:100A4000859123FF81912F01853229F490E0B30134
:100A50000E94ED06E7CF982FFF24EE249924FFE1B2
:100A6000FF15D0F09B3269F09C3228F4903259F097
:100A7000933291F40EC09D3249F0903369F441E015
:100A800024C052E0F52A84E0F82A28C098E0F92A28
:100A900025C0E0E1FE2A22C0F7FC29C0892F80533F
:100AA0008A3070F4F6FE05C0989C902C1124980EA4
:100AB00015C0E89CE02C1124E80EF0E2FF2A0EC0DD
:100AC0009E3229F4F6FC6BC140E4F42A07C09C3640
:100AD00019F450E8F52A02C0983649F4F20123FDD2
:100AE000959123FF91912F01992309F0B8CF892F78
:100AF0008554833018F08052833038F444E050E05D
:100B0000A40EB51E5FE359830FC0933631F09337BF
:100B100079F0933509F056C020C0F50180818983B2
:100B200042E050E0A40EB51E610101E010E012C0E9
:100B3000F501C080D180F6FC03C06FEF7FEF02C0EB
:100B4000692D70E042E050E0A40EB51EC6010E947F
:100B5000E2068C015FE7F52214C0F501C080D18068
:100B6000F6FC03C06FEF7FEF02C0692D70E042E03A
:100B700050E0A40EB51EC6010E94D7068C0150E8B5
:100B8000F52AF3FE07C01AC080E290E0B3010E948C
:100B9000ED06EA948E2D90E008171907A8F30EC011
:100BA000F601F7FC8591F7FE81916F0190E0B301AA
:100BB0000E94ED06E110EA94015010400115110564
:100BC00079F7EAC0943611F0993669F5F7FE08C056
:100BD000F501208131814281538184E090E00AC097
:100BE000F501808191819C01442737FD4095542F68
:100BF00082E090E0A80EB91E9FE6F92257FF09C0D7
:100C000050954095309521953F4F4F4F5F4FE0E80D
:100C1000FE2ACA01B901A1012AE030E00E941907A9
:100C2000D82ED21840C0953729F41F2D1F7E2AE0F8
:100C300030E01DC01F2D197F9F3661F0903720F4E2
:100C4000983509F0ACC00FC0903739F0983709F0EB
:100C5000A6C004C028E030E00AC0106114FD146092
:100C600020E130E004C014FD166020E132E017FFFF
:100C700008C0F501608171818281938144E050E078
:100C800008C0F50180819181BC0180E090E042E0E4
:100C900050E0A40EB51EA1010E941907D82ED2184B
:100CA0008FE7F82EF122F6FE0BC05EEFF522D91485
:100CB00038F4F4FE07C0F2FC05C08FEEF82202C043
:100CC0001D2D01C0192DF4FE0DC0FE01ED0DF11D0D
:100CD0008081803319F499EEF92208C01F5FF2FE7B
:100CE00005C003C08F2D867809F01F5F0F2DF3FC20
:100CF00014C0F0FE0FC01E1510F09D2C0BC09D2CD3
:100D00009E0C911A1E2D06C080E290E0B3010E9455
:100D1000ED061F5F1E15C0F304C01E1510F4E11A86
:100D200001C0EE2404FF0FC080E390E0B3010E94F5
:100D3000ED0602FF1DC001FD03C088E790E00EC074
:100D400088E590E00BC0802F867891F001FF02C00B
:100D50008BE201C080E2F7FC8DE290E0B3010E94DB
:100D6000ED0606C080E390E0B3010E94ED069A9480
:100D7000D914C0F3DA94F101ED0DF11D808190E0FA
:100D8000B3010E94ED06DD20A9F706C080E290E0E5
:100D9000B3010E94ED06EA94EE20C1F743CEF301C1
:100DA00066817781CB012B96E2E10C949307FC01DD
:100DB0000590615070400110D8F7809590958E0F86
:100DC0009F1F0895FC016150704001900110D8F7F9
:100DD000809590958E0F9F1F08950F931F93CF932B
:100DE000DF938C01EB018B8181FF1BC082FF0DC063
:100DF0002E813F818C819D812817390764F4E88119
:100E0000F9810193F983E88306C0E885F985802F8D
:100E10000995892B31F48E819F8101969F838E8362
:100E200002C00FEF1FEFC801DF91CF911F910F910B
:100E30000895FA01AA27283051F1203181F1E89470
:100E40006F936E7F6E5F7F4F8F4F9F4FAF4FB1E0BD
:100E50003ED0B4E03CD0670F781F891F9A1FA11DB8
:100E6000680F791F8A1F911DA11D6A0F711D811DB9
:100E7000911DA11D20D009F468943F912AE0269F7E
:100E800011243019305D3193DEF6CF010895462FDD
:100E90004770405D4193B3E00FD0C9F7F6CF462FBE
:100EA0004F70405D4A3318F0495D31FD4052419327
:100EB00002D0A9F7EACFB4E0A695979587957795E4
:100EC0006795BA95C9F700976105710508959B016B
:100ED000AC010A2E06945795479537952795BA95F4
:100EE000C9F7620F731F841F951FA01D08952F92CD
:100EF0003F924F925F926F927F928F929F92AF92AA
:100F0000BF92CF92DF92EF92FF920F931F93CF93F6
:100F1000DF93CDB7DEB7CA1BDB0B0FB6F894DEBF8D
:100F20000FBECDBF09942A88398848885F846E84B3
:100F30007D848C849B84AA84B984C884DF80EE80FD
:100F4000FD800C811B81AA81B981CE0FD11D0FB606
:100F5000F894DEBF0FBECDBFED010895F894FFCF2A
:080F600068656C6C6F00010173
:00000001FF
