:100000000C942A000C9447000C9447000C94470071
:100010000C9447000C9447000C9447000C94470044
:100020000C9447000C9447000C9447000C94470034
:100030000C9447000C9447000C9447000C94470024
:100040000C9447000C9447000C9447000C94470014
:100050000C94470011241FBECFE5D8E0DEBFCDBF12
:1000600010E0A0E6B0E0E8E9F9E202C005900D92E8
:10007000AC37B107D9F710E0ACE7B0E001C01D9292
:10008000AD38B107E1F70E94610F0C94CA140C94CB
:100090000000EF92FF920F931F937B018C0120E0F1
:1000A00030E040E05FE40E94490388238CF0C801FF
:1000B000B70120E030E040E05FE40E94C1010E940F
:1000C000A9039B01AC01205030404040504806C07D
:1000D000C801B7010E94A9039B01AC01B901CA0183
:1000E0001F910F91FF90EF900895A0E0B0E0EBE733
:1000F000F0E00C94F211DC012B01FA019C9192309A
:1001000008F439C1EB018881823008F433C194309E
:1001100069F4843009F02FC111969C91119789815F
:10012000981709F428C1A3E6B0E025C1843009F48A
:1001300021C18230A9F4923009F01DC19A01AD01AC
:1001400088E0EA010990AE01E90109929E0181501F
:10015000C1F7E201898111969C918923818308C1AD
:10016000923009F407C112962D903C901397EB0141
:100170008A819B811496AD90BD90CD90DC901797AD
:10018000EC80FD800E811F819101281B390BB90184
:1001900037FF04C066277727621B730B6032710537
:1001A0000CF061C0121613066CF537014801062EDB
:1001B00004C096948794779467940A94D2F721E0C8
:1001C00030E040E050E004C0220F331F441F551FB1
:1001D0006A95D2F721503040404050402E213F21B7
:1001E00040235123211531054105510521F021E01E
:1001F00030E040E050E079018A01E628F72808293C
:1002000019293CC0232BD1F1260E371E350146019A
:10021000062E04C096948794779467940A94D2F734
:1002200021E030E040E050E004C0220F331F441FC3
:10023000551F6A95D2F721503040404050402A2146
:100240003B214C215D21211531054105510521F04E
:1002500021E030E040E050E059016A01A628B728CB
:10026000C828D9280BC0821593052CF01C01AA249C
:10027000BB24650103C0EE24FF24870111969C91E5
:10028000D20111968C91981709F445C0992339F041
:10029000A80197012A193B094C095D0906C0A6016E
:1002A00095012E193F09400B510B57FD08C01182D3
:1002B0003382228224833583468357831DC081E0A5
:1002C00081833382228288279927DC01821B930B4A
:1002D000A40BB50B84839583A683B7830DC0220F2F
:1002E000331F441F551F24833583468357838281E0
:1002F000938101979383828324813581468157813D
:10030000DA01C9010197A109B1098F5F9F4FAF4F72
:10031000BF4328F30BC0918333822282EA0CFB1C7B
:100320000C1D1D1DE482F5820683178383E0808304
:10033000248135814681578157FF1AC0C901AA27F8
:1003400097FDA095BA2F81709070A070B0705695EF
:10035000479537952795822B932BA42BB52B848318
:100360009583A683B7838281938101969383828349
:10037000DF0101C0D201CD01CDB7DEB7E2E10C94BF
:100380000E12A0E2B0E0E7ECF1E00C94FE116983FC
:100390007A838B839C832D833E834F835887E9E048
:1003A000EE2EF12CEC0EFD1ECE010196B7010E943F
:1003B000D2048E010F5E1F4FCE010596B8010E9438
:1003C000D2048A8991E089278A8BC701B801AE01DE
:1003D000475E5F4F0E9475000E94FD03A096E6E015
:1003E0000C941A12A0E2B0E0E8EFF1E00C94FE11D8
:1003F00069837A838B839C832D833E834F835887C5
:10040000F9E0EF2EF12CEC0EFD1ECE010196B701A6
:100410000E94D2048E010F5E1F4FCE010596B801D7
:100420000E94D204C701B801AE01475E5F4F0E942F
:1004300075000E94FD03A096E6E00C941A12A0E25B
:10044000B0E0E5E2F2E00C94F21169837A838B83E9
:100450009C832D833E834F835887CE010196BE0136
:10046000675F7F4F0E94D204CE010596BE016F5E8A
:100470007F4F0E94D2049985923088F0898982301A
:10048000C8F0943019F4823051F404C0843029F457
:10049000923081F483E690E0C6C0923049F420E0C7
:1004A0009A858A89981321E02A87CE010996BBC0D4
:1004B000823049F420E09A858A89981321E02A8BBA
:1004C000CE014196B0C02D843E844F8458886D88FB
:1004D0007E888F88988CEE24FF248701AA24BB2471
:1004E000650140E050E060E070E0E0E0F0E0C10174
:1004F00081709070892BE9F0E60CF71C081D191D1E
:100500009A01AB012A0D3B1D4C1D5D1D80E090E062
:10051000A0E0B0E0E614F7040805190520F481E036
:1005200090E0A0E0B0E0BA01A901480F591F6A1F8E
:100530007B1FAA0CBB1CCC1CDD1C97FE08C081E0F5
:1005400090E0A0E0B0E0A82AB92ACA2ADB2A3196B6
:10055000E032F10549F0660C771C881C991C569412
:10056000479437942794C3CFFA85EA892B893C892D
:100570008B859C85280F391F2E5F3F4F17C0CA01FE
:1005800081709070892B61F016950795F794E79428
:1005900080E090E0A0E0B0E8E82AF92A0A2B1B2BC3
:1005A00076956795579547952F5F3F4F77FDE7CF36
:1005B0000CC0440F551F661F771F17FD4160EE0CDE
:1005C000FF1C001F111F21503040403090E05907A0
:1005D00090E0690790E4790760F32B8F3C8FDB0193
:1005E000CA018F779070A070B07080349105A1051A
:1005F000B10561F447FD0AC0E114F10401051105DC
:1006000029F0405C5F4F6F4F7F4F40781A8EFE1786
:1006100011F081E08A8F4D8F5E8F6F8F78A383E01A
:10062000898FCE0149960E94FD03A096E2E10C94C9
:100630000E12A8E1B0E0EFE1F3E00C94FE11698343
:100640007A838B839C832D833E834F83588789E0F5
:10065000E82EF12CEC0EFD1ECE010196B7010E9492
:10066000D2048E010F5E1F4FCE010596B8010E9485
:10067000D2048985823040F08989823028F0C70110
:10068000B8010E944A0501C08FEF6896E6E00C941D
:100690001A12A8E1B0E0EFE4F3E00C94FE116983D4
:1006A0007A838B839C832D833E834F83588789E095
:1006B000E82EF12CEC0EFD1ECE010196B7010E9432
:1006C000D2048E010F5E1F4FCE010596B8010E9425
:1006D000D2048985823040F08989823028F0C701B0
:1006E000B8010E944A0501C08FEF6896E6E00C94BD
:1006F0001A12A8E1B0E0EFE7F3E00C94FE11698371
:100700007A838B839C832D833E834F83588789E034
:10071000E82EF12CEC0EFD1ECE010196B7010E94D1
:10072000D2048E010F5E1F4FCE010596B8010E94C4
:10073000D2048985823040F08989823028F0C7014F
:10074000B8010E944A0501C081E06896E6E00C9479
:100750001A12ACE0B0E0EFEAF3E00C940212698305
:100760007A838B839C83CE010196BE016B5F7F4FA2
:100770000E94D2048D81823061F1823050F1843048
:1007800021F48E81882351F12EC02F81388537FDC9
:1007900020C06E812F3131051CF06623F9F023C093
:1007A0008EE190E0821B930B29853A854B855C8511
:1007B00004C056954795379527958A95D2F76623B5
:1007C000B1F050954095309521953F4F4F4F5F4F79
:1007D0000EC020E030E040E050E009C02FEF3FEFD6
:1007E0004FEF5FE704C020E030E040E050E8B9019F
:1007F000CA012C96E2E00C941E12DF92EF92FF9257
:100800000F931F93FC01E480F58006811781D1804E
:100810008081823048F480E090E0A0E1B0E0E82AF6
:10082000F92A0A2B1B2BA5C0843009F49FC0823003
:1008300021F4EE24FF24870105C0E114F104010531
:10084000110519F4E0E0F0E096C0628173819FEF3A
:10085000623879070CF05BC022E83FEF261B370BAC
:100860002A3131052CF020E030E040E050E02AC091
:10087000B801A701022E04C0769567955795479554
:100880000A94D2F781E090E0A0E0B0E004C0880FC5
:10089000991FAA1FBB1F2A95D2F70197A109B10979
:1008A0008E219F21A023B1230097A105B10521F03E
:1008B00081E090E0A0E0B0E09A01AB01282B392B59
:1008C0004A2B5B2BDA01C9018F779070A070B07052
:1008D00080349105A105B10539F427FF09C0205CDA
:1008E0003F4F4F4F5F4F04C0215C3F4F4F4F5F4F13
:1008F000E0E0F0E02030A0E03A07A0E04A07A0E402
:100900005A0710F0E1E0F0E079018A0127C0603871
:10091000710564F5FB01E158FF4FD801C7018F77DE
:100920009070A070B07080349105A105B10539F4C4
:10093000E7FE0DC080E490E0A0E0B0E004C08FE3EB
:1009400090E0A0E0B0E0E80EF91E0A1F1B1F17FFA1
:1009500005C016950795F794E794319687E01695AC
:100960000795F794E7948A95D1F705C0EE24FF2404
:100970008701EFEFF0E06E2F679566276795902F60
:100980009F77D794DD24D7948E2F8695492F462BB9
:10099000582F5D29B701CA011F910F91FF90EF9069
:1009A000DF900895FC01DB01408151812281622F9B
:1009B0006F7770E0221F2227221F9381892F880FD3
:1009C000822B282F30E0991F9927991F11969C930D
:1009D000119721153105A9F54115510561057105DD
:1009E00011F482E037C082E89FEF13969C938E93B8
:1009F00012979A01AB0167E0220F331F441F551F66
:100A00006A95D1F783E08C930DC0220F331F441FEA
:100A1000551F12968D919C911397019713969C9355
:100A20008E931297203080E0380780E0480780E4FA
:100A3000580758F314962D933D934D935C93179755
:100A400008952F3F310579F4411551056105710570
:100A500019F484E08C93089564FF03C081E08C93C3
:100A600012C01C9210C02F57304013963C932E9307
:100A7000129783E08C9387E0440F551F661F771F02
:100A80008A95D1F7706414964D935D936D937C9322
:100A9000179708951F93DC01FB019C91923008F495
:100AA00047C08081823008F443C0943051F41196DD
:100AB0001C91843099F58181682F70E0611B710968
:100AC0003FC0843021F0923031F48230B9F181811D
:100AD000882389F12DC011961C9111978230F1F075
:100AE00081811817D9F412962D913C911397828128
:100AF00093818217930794F028173907BCF0149656
:100B00008D919D910D90BC91A02D248135814681C0
:100B10005781281739074A075B0718F4112341F05A
:100B20000AC082179307A407B50740F4112319F0F0
:100B300061E070E005C06FEF7FEF02C060E070E041
:100B4000CB011F910895DF93CF9300D000D00F9277
:100B5000CDB7DEB789836A834B838981282F30E044
:100B60003D832C836C817D8161307105D1F18C8155
:100B70009D818230910534F42C813D812115310510
:100B800071F094C06C817D816230710509F44BC0B5
:100B90008C819D818330910509F467C087C0AAE3E9
:100BA000B0E0EAE3F0E08081482F8A81282F30E02E
:100BB00081E090E002C0880F991F2A95E2F78095A6
:100BC00048238B81282F30E08A81882F90E0B9015B
:100BD00002C0660F771F8A95E2F7CB01842B8C93B6
:100BE00065C0A7E3B0E0E7E3F0E08081482F8A81A9
:100BF000282F30E081E090E002C0880F991F2A95ED
:100C0000E2F7809548238B81282F30E08A81882F56
:100C100090E0B90102C0660F771F8A95E2F7CB0119
:100C2000842B8C9343C0A4E3B0E0E4E3F0E0808144
:100C3000482F8A81282F30E081E090E002C0880FA1
:100C4000991F2A95E2F7809548238B81282F30E061
:100C50008A81882F90E0B90102C0660F771F8A95BC
:100C6000E2F7CB01842B8C9321C0A1E3B0E0E1E358
:100C7000F0E08081482F8A81282F30E081E090E0E9
:100C800002C0880F991F2A95E2F7809548238B812F
:100C9000282F30E08A81882F90E0B90102C0660FCA
:100CA000771F8A95E2F7CB01842B8C930F900F90DE
:100CB0000F900F900F90CF91DF910895DF93CF9316
:100CC00000D000D00F92CDB7DEB789836A834B8303
:100CD0008981282F30E03D832C836C817D816130B8
:100CE0007105D1F18C819D818230910534F42C8184
:100CF0003D812115310571F094C06C817D81623098
:100D0000710509F44BC08C819D818330910509F4F4
:100D100067C087C0ABE3B0E0EBE3F0E08081482F31
:100D20008A81282F30E081E090E002C0880F991F6F
:100D30002A95E2F7809548238B81282F30E08A811D
:100D4000882F90E0B90102C0660F771F8A95E2F7FD
:100D5000CB01842B8C9365C0A8E3B0E0E8E3F0E01E
:100D60008081482F8A81282F30E081E090E002C006
:100D7000880F991F2A95E2F7809548238B81282FA9
:100D800030E08A81882F90E0B90102C0660F771F9A
:100D90008A95E2F7CB01842B8C9343C0A5E3B0E0A6
:100DA000E5E3F0E08081482F8A81282F30E081E060
:100DB00090E002C0880F991F2A95E2F7809548239A
:100DC0008B81282F30E08A81882F90E0B90102C002
:100DD000660F771F8A95E2F7CB01842B8C9321C095
:100DE000A2E3B0E0E2E3F0E08081482F8A81282F7F
:100DF00030E081E090E002C0880F991F2A95E2F769
:100E0000809548238B81282F30E08A81882F90E0BD
:100E1000B90102C0660F771F8A95E2F7CB01842BD8
:100E20008C930F900F900F900F900F90CF91DF91B8
:100E30000895DF93CF9300D000D00F92CDB7DEB7E7
:100E40008A836B8319828A81282F30E03D832C832B
:100E50004C815D814130510541F18C819D81823011
:100E6000910534F42C813D812115310561F052C08A
:100E70004C815D814230510551F18C819D818330DF
:100E80009105B9F147C0E9E3F0E08081282F30E017
:100E90008B81882F90E0A90102C0559547958A95CE
:100EA000E2F7CA018170898335C0E6E3F0E0808112
:100EB000282F30E08B81882F90E0A90102C0559542
:100EC00047958A95E2F7CA018170898323C0E3E3DD
:100ED000F0E08081282F30E08B81882F90E0A901FD
:100EE00002C0559547958A95E2F7CA0181708983BA
:100EF00011C0E0E3F0E08081282F30E08B81882F63
:100F000090E0A90102C0559547958A95E2F7CA017C
:100F10008170898389810F900F900F900F900F90AF
:100F2000CF91DF910895DF93CF9300D000D0CDB75C
:100F3000DEB789836A838981282F30E03C832B8345
:100F40008B819C8181309105D1F02B813C812230B5
:100F500031052CF48B819C81009761F01EC02B81A0
:100F60003C812230310581F08B819C818330910559
:100F700081F013C0EAE3F0E08A8180830EC0E7E3EA
:100F8000F0E08A81808309C0E4E3F0E08A81808315
:100F900004C0E1E3F0E08A8180830F900F900F900E
:100FA0000F90CF91DF910895DF93CF9300D000D0C1
:100FB000CDB7DEB789836A838981282F30E03C83EF
:100FC0002B838B819C8181309105D1F02B813C81D9
:100FD000223031052CF48B819C81009761F01EC07A
:100FE0002B813C812230310581F08B819C818330C3
:100FF000910581F013C0EBE3F0E08A8180830EC09D
:10100000E8E3F0E08A81808309C0E5E3F0E08A81CB
:10101000808304C0E2E3F0E08A8180830F900F9028
:101020000F900F90CF91DF910895DF93CF9300D071
:1010300000D0CDB7DEB78A8319828A81282F30E0AD
:101040003C832B838B819C8181309105D1F02B8156
:101050003C81223031052CF48B819C81009761F01A
:101060001EC02B813C812230310581F08B819C8117
:101070008330910581F013C0E9E3F0E0808189833A
:101080000EC0E6E3F0E08081898309C0E3E3F0E08D
:101090008081898304C0E0E3F0E0808189838981D5
:1010A0000F900F900F900F90CF91DF910895DF93E5
:1010B000CF93CDB7DEB780E060E040E00E94A305AB
:1010C00080E061E040E00E94A30580E062E040E053
:1010D0000E94A30580E063E040E00E94A30580E059
:1010E00064E041E00E94A30580E065E041E00E94E9
:1010F000A30580E066E041E00E94A30580E067E090
:1011000041E00E94A30580E06FEF0E94D407CF91D9
:10111000DF910895DF93CF93CDB7DEB761970FB618
:10112000F894DEBF0FBECDBF8FEF898B84E0888B34
:10113000A9C080E0688940E00E945E061F8696C0D4
:1011400080E06F850E9419078823D9F48889882F49
:1011500090E0AC01445050408F85282F30E0CA0108
:10116000880F991F880F991F820F931FFC01E55963
:10117000FF4F8081898B80E06F850E94190788234B
:10118000D1F380E090E0A0EAB1E48B879C87AD8743
:10119000BE876B857C858D859E8520E030E04AEF9B
:1011A00054E40E941F02DC01CB018F839887A9873A
:1011B000BA876F81788589859A8520E030E040E89C
:1011C0005FE30E94790388232CF481E090E09E8302
:1011D0008D833FC06F81788589859A8520E03FEFB8
:1011E0004FE757E40E94190318164CF56B857C8570
:1011F0008D859E8520E030E040E251E40E941F0290
:10120000DC01CB01BC01CD010E944900DC01CB0116
:101210009E838D830FC088EC90E09C838B838B81B1
:101220009C810197F1F79C838B838D819E8101972F
:101230009E838D838D819E81009769F714C06F8195
:10124000788589859A850E944900DC01CB019E83BF
:101250008D838D819E819A83898389819A8101976B
:10126000F1F79A8389838F858F5F8F878F8584308D
:1012700008F466CF80E0688941E00E945E068889B4
:101280008F5F888B8889883008F453CF898961966D
:101290000FB6F894DEBF0FBECDBFCF91DF9108959A
:1012A0000F931F93DF93CF93CDB7DEB7C654D040D3
:1012B0000FB6F894DEBF0FBECDBF81E060E041E025
:1012C0000E94A30581E061E041E00E94A30581E066
:1012D00062E041E00E94A30583E06FEF0E94930764
:1012E000FE01ED5BFF4F80E090E0A0EFB1E4808372
:1012F0009183A283B3838E01015C1F4FFE01ED5BDE
:10130000FF4F608171818281938120E030E04AEF5C
:1013100054E40E941F02DC01CB01F8018083918319
:10132000A283B383FE01FF966081718182819381E4
:1013300020E030E040E85FE30E94790388232CF44A
:1013400081E090E09EAF8DAF46C0FE01FF966081C8
:1013500071818281938120E03FEF4FE757E40E9443
:101360001903181664F5FE01ED5BFF4F6081718172
:101370008281938120E030E040E251E40E941F022C
:10138000DC01CB01BC01CD010E944900DC01CB0195
:101390009EAF8DAF0FC088EC90E09CAF8BAF8BAD54
:1013A0009CAD0197F1F79CAF8BAF8DAD9EAD0197D2
:1013B0009EAF8DAF8DAD9EAD009769F716C0FE0153
:1013C000FF9660817181828193810E944900DC01D6
:1013D000CB019EAF8DAF8DAD9EAD9AAF89AF89AD7C
:1013E0009AAD0197F1F79AAF89AF88E30E94850D16
:1013F00080E090E0A0E8BFE38DAB9EABAFABB8AFB1
:101400006DA97EA98FA998AD20E030E04AEF54E4A1
:101410000E941F02DC01CB0189AB9AABABABBCAB2A
:1014200069A97AA98BA99CA920E030E040E85FE394
:101430000E94790388232CF481E090E098AB8FA779
:101440003FC069A97AA98BA99CA920E03FEF4FE78B
:1014500057E40E94190318164CF56DA97EA98FA9AF
:1014600098AD20E030E040E251E40E941F02DC0130
:10147000CB01BC01CD010E944900DC01CB0198AB3E
:101480008FA70FC088EC90E09EA78DA78DA59EA585
:101490000197F1F79EA78DA78FA598A9019798AB03
:1014A0008FA78FA598A9009769F714C069A97AA991
:1014B0008BA99CA90E944900DC01CB0198AB8FA7A6
:1014C0008FA598A99CA78BA78BA59CA50197F1F741
:1014D0009CA78BA78CE00E94850D80E090E0A0E89F
:1014E000BFE38FA398A7A9A7BAA76FA178A589A5DD
:1014F0009AA520E030E04AEF54E40E941F02DC018C
:10150000CB018BA39CA3ADA3BEA36BA17CA18DA19A
:101510009EA120E030E040E85FE30E947903882349
:101520002CF481E090E09AA389A33FC06BA17CA139
:101530008DA19EA120E03FEF4FE757E40E941903E1
:1015400018164CF56FA178A589A59AA520E030E082
:1015500040E251E40E941F02DC01CB01BC01CD013D
:101560000E944900DC01CB019AA389A30FC088EC3B
:1015700090E098A38F8F8F8D98A10197F1F798A392
:101580008F8F89A19AA101979AA389A389A19AA172
:10159000009769F714C06BA17CA18DA19EA10E9448
:1015A0004900DC01CB019AA389A389A19AA19E8F4E
:1015B0008D8F8D8D9E8D0197F1F79E8F8D8F81E0A0
:1015C0000E94850D80E090E0A0E0B0E4898F9A8FC2
:1015D000AB8FBC8F698D7A8D8B8D9C8D20E030E038
:1015E0004AEF54E40E941F02DC01CB018D8B9E8BDD
:1015F000AF8BB88F6D897E898F89988D20E030E020
:1016000040E85FE30E94790388232CF481E090E0B6
:101610009C8B8B8B3FC06D897E898F89988D20E054
:101620003FEF4FE757E40E94190318164CF5698DF8
:101630007A8D8B8D9C8D20E030E040E251E40E9459
:101640001F02DC01CB01BC01CD010E944900DC017D
:10165000CB019C8B8B8B0FC088EC90E09A8B898B95
:1016600089899A890197F1F79A8B898B8B899C8953
:1016700001979C8B8B8B8B899C89009769F714C091
:101680006D897E898F89988D0E944900DC01CB018C
:101690009C8B8B8B8B899C89988B8F878F85988966
:1016A0000197F1F7988B8F8786E00E94850D80E087
:1016B00090E0A0E0B0E48B879C87AD87BE876B8508
:1016C0007C858D859E8520E030E04AEF54E40E94C1
:1016D0001F02DC01CB018F839887A987BA876F81AE
:1016E000788589859A8520E030E040E85FE30E94B4
:1016F000790388232CF481E090E09E838D833FC0A2
:101700006F81788589859A8520E03FEF4FE757E420
:101710000E94190318164CF56B857C858D859E8576
:1017200020E030E040E251E40E941F02DC01CB01E6
:10173000BC01CD010E944900DC01CB019E838D8359
:101740000FC088EC90E09C838B838B819C810197F8
:10175000F1F79C838B838D819E8101979E838D837E
:101760008D819E81009769F714C06F817885898586
:101770009A850E944900DC01CB019E838D838D8177
:101780009E819A83898389819A810197F1F79A834F
:101790008983CA5BDF4F0FB6F894DEBF0FBECDBFA3
:1017A000CF91DF911F910F910895DF93CF93CDB724
:1017B000DEB7AB970FB6F894DEBF0FBECDBF8BA7D9
:1017C00081E060E041E00E945E0681E061E040E08F
:1017D0000E945E0681E062E041E00E945E0683E0D6
:1017E0006BA50E94D40780E090E0A0E2B1E48FA353
:1017F00098A7A9A7BAA76FA178A589A59AA520E05F
:1018000030E04AEF54E40E941F02DC01CB018BA3BD
:101810009CA3ADA3BEA36BA17CA18DA19EA120E042
:1018200030E040E85FE30E94790388232CF481E0F4
:1018300090E09AA389A33FC06BA17CA18DA19EA13A
:1018400020E03FEF4FE757E40E94190318164CF5CC
:101850006FA178A589A59AA520E030E040E251E487
:101860000E941F02DC01CB01BC01CD010E94490096
:10187000DC01CB019AA389A30FC088EC90E098A368
:101880008F8F8F8D98A10197F1F798A38F8F89A1E2
:101890009AA101979AA389A389A19AA1009769F7B0
:1018A00014C06BA17CA18DA19EA10E944900DC0106
:1018B000CB019AA389A389A19AA19E8F8D8F8D8D2B
:1018C0009E8D0197F1F79E8F8D8F81E062E040E061
:1018D0000E945E0680E090E0A0E2B1E4898F9A8FDA
:1018E000AB8FBC8F698D7A8D8B8D9C8D20E030E025
:1018F0004AEF54E40E941F02DC01CB018D8B9E8BCA
:10190000AF8BB88F6D897E898F89988D20E030E00C
:1019100040E85FE30E94790388232CF481E090E0A3
:101920009C8B8B8B3FC06D897E898F89988D20E041
:101930003FEF4FE757E40E94190318164CF5698DE5
:101940007A8D8B8D9C8D20E030E040E251E40E9446
:101950001F02DC01CB01BC01CD010E944900DC016A
:10196000CB019C8B8B8B0FC088EC90E09A8B898B82
:1019700089899A890197F1F79A8B898B8B899C8940
:1019800001979C8B8B8B8B899C89009769F714C07E
:101990006D897E898F89988D0E944900DC01CB0179
:1019A0009C8B8B8B8B899C89988B8F878F85988953
:1019B0000197F1F7988B8F8781E062E041E00E9408
:1019C0005E0680E090E0A0E2B1E48B879C87AD8763
:1019D000BE876B857C858D859E8520E030E04AEF53
:1019E00054E40E941F02DC01CB018F839887A987F2
:1019F000BA876F81788589859A8520E030E040E854
:101A00005FE30E94790388232CF481E090E09E83B9
:101A10008D833FC06F81788589859A8520E03FEF6F
:101A20004FE757E40E94190318164CF56B857C8527
:101A30008D859E8520E030E040E251E40E941F0247
:101A4000DC01CB01BC01CD010E944900DC01CB01CE
:101A50009E838D830FC088EC90E09C838B838B8169
:101A60009C810197F1F79C838B838D819E810197E7
:101A70009E838D838D819E81009769F714C06F814D
:101A8000788589859A850E944900DC01CB019E8377
:101A90008D838D819E819A83898389819A81019723
:101AA000F1F79A838983AB960FB6F894DEBF0FBE29
:101AB000CDBFCF91DF910895DF93CF9300D00F92E8
:101AC000CDB7DEB79B838A8319820EC08981282F08
:101AD00030E08A819B81FC01E20FF31F80810E942C
:101AE000D50B89818F5F89838981282F30E08A8196
:101AF0009B81FC01E20FF31F8081882339F70F904F
:101B00000F900F90CF91DF910895DF93CF93CDB7D2
:101B1000DEB7AB970FB6F894DEBF0FBECDBF8BA775
:101B200081E060E040E00E945E0681E061E040E02C
:101B30000E945E0681E062E041E00E945E0683E072
:101B40006BA50E94D40780E090E0A0E2B1E48FA3EF
:101B500098A7A9A7BAA76FA178A589A59AA520E0FB
:101B600030E04AEF54E40E941F02DC01CB018BA35A
:101B70009CA3ADA3BEA36BA17CA18DA19EA120E0DF
:101B800030E040E85FE30E94790388232CF481E091
:101B900090E09AA389A33FC06BA17CA18DA19EA1D7
:101BA00020E03FEF4FE757E40E94190318164CF569
:101BB0006FA178A589A59AA520E030E040E251E424
:101BC0000E941F02DC01CB01BC01CD010E94490033
:101BD000DC01CB019AA389A30FC088EC90E098A305
:101BE0008F8F8F8D98A10197F1F798A38F8F89A17F
:101BF0009AA101979AA389A389A19AA1009769F74D
:101C000014C06BA17CA18DA19EA10E944900DC01A2
:101C1000CB019AA389A389A19AA19E8F8D8F8D8DC7
:101C20009E8D0197F1F79E8F8D8F81E062E040E0FD
:101C30000E945E0680E090E0A0E2B1E4898F9A8F76
:101C4000AB8FBC8F698D7A8D8B8D9C8D20E030E0C1
:101C50004AEF54E40E941F02DC01CB018D8B9E8B66
:101C6000AF8BB88F6D897E898F89988D20E030E0A9
:101C700040E85FE30E94790388232CF481E090E040
:101C80009C8B8B8B3FC06D897E898F89988D20E0DE
:101C90003FEF4FE757E40E94190318164CF5698D82
:101CA0007A8D8B8D9C8D20E030E040E251E40E94E3
:101CB0001F02DC01CB01BC01CD010E944900DC0107
:101CC000CB019C8B8B8B0FC088EC90E09A8B898B1F
:101CD00089899A890197F1F79A8B898B8B899C89DD
:101CE00001979C8B8B8B8B899C89009769F714C01B
:101CF0006D897E898F89988D0E944900DC01CB0116
:101D00009C8B8B8B8B899C89988B8F878F859889EF
:101D10000197F1F7988B8F8781E062E041E00E94A4
:101D20005E0680E090E0A0E2B1E48B879C87AD87FF
:101D3000BE876B857C858D859E8520E030E04AEFEF
:101D400054E40E941F02DC01CB018F839887A9878E
:101D5000BA876F81788589859A8520E030E040E8F0
:101D60005FE30E94790388232CF481E090E09E8356
:101D70008D833FC06F81788589859A8520E03FEF0C
:101D80004FE757E40E94190318164CF56B857C85C4
:101D90008D859E8520E030E040E251E40E941F02E4
:101DA000DC01CB01BC01CD010E944900DC01CB016B
:101DB0009E838D830FC088EC90E09C838B838B8106
:101DC0009C810197F1F79C838B838D819E81019784
:101DD0009E838D838D819E81009769F714C06F81EA
:101DE000788589859A850E944900DC01CB019E8314
:101DF0008D838D819E819A83898389819A810197C0
:101E0000F1F79A838983AB960FB6F894DEBF0FBEC5
:101E1000CDBFCF91DF910895DF93CF93CDB7DEB7DC
:101E200081E00E94850DCF91DF910895DF93CF93DC
:101E300000D00F92CDB7DEB78A836B8319828A8177
:101E4000882319F48B81898303C08B81805C89830B
:101E5000898180580E94850D0F900F900F90CF912F
:101E6000DF910895DF93CF93CDB7DEB727970FB6F5
:101E7000F894DEBF0FBECDBF9C838B836D834E83F2
:101E80002F831A828D81882F90E0880F991F880FE9
:101E9000991F880F991F8A838A8180640E94850D0B
:101EA000198203C089818F5F898389818830D0F34B
:101EB00027960FB6F894DEBF0FBECDBFCF91DF914E
:101EC0000895DF93CF93CDB7DEB760970FB6F89440
:101ED000DEBF0FBECDBF0E9450090E9457080E946E
:101EE0008A088093890004C00E948A088093890030
:101EF000809189008F3FC1F30E940C0F809189006F
:101F00000E94D50B809189000E9456118093890010
:101F10000E948A0880938A0004C00E948A088093E5
:101F20008A0080918A008F3FC1F380918A000E94CD
:101F3000D50B80918A000E94561180938A000E94DE
:101F40008A0880938C0004C00E948A0880938C00C9
:101F500080918C008F3FC1F380918C000E94D50B43
:101F60000E948A088093870004C00E948A08809398
:101F70008700809187008F3FC1F3809187000E9486
:101F8000D50B809187000E945611809387000E9494
:101F90008A088093880004C00E948A088093880081
:101FA000809188008F3FC1F3809188000E94D50BFB
:101FB000809188000E945611809388000E948A08B0
:101FC00080938B0004C00E948A0880938B008091CC
:101FD0008B008F3FC1F380918B000E94D50B8091C5
:101FE0008C00282F30E0388B2F878F8598898B3293
:101FF0009105C1F02F8538892C3231053CF48F854D
:1020000098898A32910509F458C0BBC02F85388958
:102010002D32310529F18F8598898F32910509F488
:1020200080C0AFC080918900282F30E08091870068
:10203000882F90E0820F931F9C01220F331FC9014C
:10204000880F991F880F991F820F931F982F8091D7
:102050008A00980F80918800890F80937C0091C03E
:1020600080918900882F90E09C01220F331FC901C5
:10207000880F991F880F991F820F931F482F8091F7
:102080008700882F90E09C01220F331FC901880F21
:10209000991F880F991F820F931F909581959F4FCD
:1020A000942F980F80918A00980F80918800292F93
:1020B000281B822F80937C0064C080918900882F28
:1020C00090E09C01220F331FC901880F991F880FD0
:1020D000991F280F391F80918A00882F90E0A9014D
:1020E000480F591F80918700882F90E09C01220F94
:1020F000331FC901880F991F880F991F280F391F97
:1021000080918800882F90E0820F931F9C01429F4E
:10211000C001439F900D529F900D112480937C002D
:1021200030C080918900882F90E09C01220F331FDE
:10213000C901880F991F880F991F280F391F809197
:102140008A00882F90E0A901480F591F80918700CD
:10215000882F90E09C01220F331FC901880F991F1F
:10216000880F991F280F391F80918800882F90E0D1
:10217000280F391FCA01B9010E94CB11CB018093EE
:102180007C0080917C00282F30E000D000D000D06F
:10219000EDB7FEB731968DE790E09183808380E6BE
:1021A00090E093838283358324830E9429128DB724
:1021B0009EB706960FB6F8949EBF0FBE8DBF8DE7F3
:1021C00090E00E945C0D80E090E0AAE7B4E48B8789
:1021D0009C87AD87BE876B857C858D859E8520E03D
:1021E00030E04AEF54E40E941F02DC01CB018F83F0
:1021F0009887A987BA876F81788589859A8520E035
:1022000030E040E85FE30E94790388232CF481E00A
:1022100090E09E838D833FC06F81788589859A8504
:1022200020E03FEF4FE757E40E94190318164CF5E2
:102230006B857C858D859E8520E030E040E251E411
:102240000E941F02DC01CB01BC01CD010E944900AC
:10225000DC01CB019E838D830FC088EC90E09C83D2
:102260008B838B819C810197F1F79C838B838D817C
:102270009E8101979E838D838D819E81009769F752
:102280002ECE6F81788589859A850E944900DC0170
:10229000CB019E838D838D819E819A8389838981E1
:1022A0009A810197F1F79A83898319CEDF93CF93AF
:1022B00000D00F92CDB7DEB789838981282F30E017
:1022C0003B832A838A819B818433910509F44BC027
:1022D0002A813B8125333105DCF48A819B8181335E
:1022E0009105C1F12A813B812233310534F48A8181
:1022F0009B818033910561F147C02A813B81223364
:10230000310559F18A819B818333910549F13CC0A4
:102310002A813B812733310579F18A819B8188337A
:1023200091055CF42A813B8125333105F9F08A81DE
:102330009B8186339105E9F027C02A813B812833B0
:102340003105E9F08A819B8189339105D9F01CC060
:1023500019821AC081E0898317C082E0898314C082
:1023600083E0898311C084E089830EC085E089837E
:102370000BC086E0898308C087E0898305C088E0B8
:10238000898302C089E0898389810F900F900F9023
:10239000CF91DF91089597FB092E07260AD077FD8C
:1023A00004D00CD006D000201AF4709561957F4FB0
:1023B0000895F6F7909581959F4F0895AA1BBB1B32
:1023C00051E107C0AA1FBB1FA617B70710F0A61B35
:1023D000B70B881F991F5A95A9F780959095BC0156
:1023E000CD0108952F923F924F925F926F927F920C
:1023F0008F929F92AF92BF92CF92DF92EF92FF9215
:102400000F931F93CF93DF93CDB7DEB7CA1BDB0BC0
:102410000FB6F894DEBF0FBECDBF09942A88398865
:1024200048885F846E847D848C849B84AA84B9846C
:10243000C884DF80EE80FD800C811B81AA81B98178
:10244000CE0FD11D0FB6F894DEBF0FBECDBFED018C
:102450000895AEE0B0E0EFE2F2E10C9400120D89D5
:102460001E8986E08C831A8309838FEF9FE79E8302
:102470008D839E01275E3F4FCE0101966F89788D37
:10248000A9010E944D122F813885020F131FF801F8
:1024900010822E96E4E00C941C12ABE0B0E0E3E571
:1024A000F2E10C94F2113C012B015A01FC0117825C
:1024B0001682838181FD03C06FEF7FEFC6C19AE072
:1024C000892E1E010894211C311CF3012381F20185
:1024D00023FD859123FF81912F01882309F4B2C147
:1024E000853239F423FD859123FF81912F018532B7
:1024F00029F490E0B3010E944014E7CF982FFF2405
:10250000EE249924FFE1FF15D0F09B3269F09C3254
:1025100028F4903259F0933291F40EC09D3249F074
:10252000903369F441E024C052E0F52A84E0F82AAF
:1025300028C098E0F92A25C0E0E1FE2A22C0F7FC75
:1025400029C0892F80538A3070F4F6FE05C0989C0C
:10255000902C1124980E15C0E89CE02C1124E80E54
:10256000F0E2FF2A0EC09E3229F4F6FC6BC140E473
:10257000F42A07C09C3619F450E8F52A02C09836B0
:1025800049F4F20123FD959123FF91912F019923A5
:1025900009F0B8CF892F8554833018F080528330EA
:1025A00038F444E050E0A40EB51E5FE359830FC039
:1025B000933631F0933779F0933509F056C020C047
:1025C000F5018081898342E050E0A40EB51E6101CF
:1025D00001E010E012C0F501C080D180F6FC03C01C
:1025E0006FEF7FEF02C0692D70E042E050E0A40E73
:1025F000B51EC6010E9435148C015FE7F52214C098
:10260000F501C080D180F6FC03C06FEF7FEF02C000
:10261000692D70E042E050E0A40EB51EC6010E9494
:102620002A148C0150E8F52AF3FE07C01AC080E294
:1026300090E0B3010E944014EA948E2D90E00817B8
:102640001907A8F30EC0F601F7FC8591F7FE8191FA
:102650006F0190E0B3010E944014E110EA94015030
:1026600010400115110579F7EAC0943611F099363A
:1026700069F5F7FE08C0F50120813181428153815F
:1026800084E090E00AC0F501808191819C0144279B
:1026900037FD4095542F82E090E0A80EB91E9FE6CA
:1026A000F92257FF09C050954095309521953F4F2D
:1026B0004F4F5F4FE0E8FE2ACA01B901A1012AE0AD
:1026C00030E00E946C14D82ED21840C0953729F4FF
:1026D0001F2D1F7E2AE030E01DC01F2D197F9F3661
:1026E00061F0903720F4983509F0ACC00FC09037F6
:1026F00039F0983709F0A6C004C028E030E00AC0DD
:10270000106114FD146020E130E004C014FD166077
:1027100020E132E017FF08C0F501608171818281FC
:10272000938144E050E008C0F50180819181BC01B3
:1027300080E090E042E050E0A40EB51EA1010E94AE
:102740006C14D82ED2188FE7F82EF122F6FE0BC0AB
:102750005EEFF522D91438F4F4FE07C0F2FC05C090
:102760008FEEF82202C01D2D01C0192DF4FE0DC000
:10277000FE01ED0DF11D8081803319F499EEF922EF
:1027800008C01F5FF2FE05C003C08F2D867809F0D8
:102790001F5F0F2DF3FC14C0F0FE0FC01E1510F0CC
:1027A0009D2C0BC09D2C9E0C911A1E2D06C080E204
:1027B00090E0B3010E9440141F5F1E15C0F304C0D7
:1027C0001E1510F4E11A01C0EE2404FF0FC080E3CF
:1027D00090E0B3010E94401402FF1DC001FD03C040
:1027E00088E790E00EC088E590E00BC0802F8678E7
:1027F00091F001FF02C08BE201C080E2F7FC8DE2A4
:1028000090E0B3010E94401406C080E390E0B30161
:102810000E9440149A94D914C0F3DA94F101ED0D9A
:10282000F11D808190E0B3010E944014DD20A9F7E2
:1028300006C080E290E0B3010E944014EA94EE20CA
:10284000C1F743CEF30166817781CB012B96E2E19C
:102850000C940E12FC010590615070400110D8F7E5
:10286000809590958E0F9F1F0895FC0161507040D8
:1028700001900110D8F7809590958E0F9F1F0895B5
:102880000F931F93CF93DF938C01EB018B8181FF1B
:102890001BC082FF0DC02E813F818C819D81281736
:1028A000390764F4E881F9810193F983E88306C06C
:1028B000E885F985802F0995892B31F48E819F81D8
:1028C00001969F838E8302C00FEF1FEFC801DF9137
:1028D000CF911F910F910895FA01AA27283051F145
:1028E000203181F1E8946F936E7F6E5F7F4F8F4F41
:1028F0009F4FAF4FB1E03ED0B4E03CD0670F781FA0
:10290000891F9A1FA11D680F791F8A1F911DA11D84
:102910006A0F711D811D911DA11D20D009F46894BD
:102920003F912AE0269F11243019305D3193DEF665
:10293000CF010895462F4770405D4193B3E00FD01B
:10294000C9F7F6CF462F4F70405D4A3318F0495D06
:1029500031FD4052419302D0A9F7EACFB4E0A695E9
:102960009795879577956795BA95C9F7009761050B
:10297000710508959B01AC010A2E06945795479561
:1029800037952795BA95C9F7620F731F841F951F56
:08299000A01D0895F894FFCF8B
:1029980025640000000000000000003938372B369D
:0C29A80035342D3332312A302F633D00CE
:00000001FF
