:100000000C942A000C9434000C9434000C943400AA
:100010000C9434000C9434000C9434000C94340090
:100020000C9434000C9434000C9434000C94340080
:100030000C9434000C9434000C9434000C94340070
:100040000C9434000C9434000C9434000C94340060
:100050000C94340011241FBECFE5D8E0DEBFCDBF25
:100060000E948E030C94AF030C940000DF93CF9397
:1000700000D000D00F92CDB7DEB789836A834B835F
:100080008981282F30E03D832C836C817D81613014
:100090007105D1F18C819D818230910534F42C81E0
:1000A0003D812115310571F094C06C817D816230F4
:1000B000710509F44BC08C819D818330910509F451
:1000C00067C087C0AAE3B0E0EAE3F0E08081482F90
:1000D0008A81282F30E081E090E002C0880F991FCC
:1000E0002A95E2F7809548238B81282F30E08A817A
:1000F000882F90E0B90102C0660F771F8A95E2F75A
:10010000CB01842B8C9365C0A7E3B0E0E7E3F0E07C
:100110008081482F8A81282F30E081E090E002C062
:10012000880F991F2A95E2F7809548238B81282F05
:1001300030E08A81882F90E0B90102C0660F771FF6
:100140008A95E2F7CB01842B8C9343C0A4E3B0E003
:10015000E4E3F0E08081482F8A81282F30E081E0BD
:1001600090E002C0880F991F2A95E2F780954823F6
:100170008B81282F30E08A81882F90E0B90102C05E
:10018000660F771F8A95E2F7CB01842B8C9321C0F1
:10019000A1E3B0E0E1E3F0E08081482F8A81282FDD
:1001A00030E081E090E002C0880F991F2A95E2F7C5
:1001B000809548238B81282F30E08A81882F90E01A
:1001C000B90102C0660F771F8A95E2F7CB01842B35
:1001D0008C930F900F900F900F900F90CF91DF9115
:1001E0000895DF93CF9300D000D00F92CDB7DEB744
:1001F00089836A834B838981282F30E03D832C8358
:100200006C817D8161307105D1F18C819D8182305D
:10021000910534F42C813D812115310571F094C094
:100220006C817D816230710509F44BC08C819D81A8
:100230008330910509F467C087C0ABE3B0E0EBE31E
:10024000F0E08081482F8A81282F30E081E090E023
:1002500002C0880F991F2A95E2F7809548238B8169
:10026000282F30E08A81882F90E0B90102C0660F04
:10027000771F8A95E2F7CB01842B8C9365C0A8E3A6
:10028000B0E0E8E3F0E08081482F8A81282F30E059
:1002900081E090E002C0880F991F2A95E2F78095CF
:1002A00048238B81282F30E08A81882F90E0B90184
:1002B00002C0660F771F8A95E2F7CB01842B8C93DF
:1002C00043C0A5E3B0E0E5E3F0E08081482F8A81F8
:1002D000282F30E081E090E002C0880F991F2A9516
:1002E000E2F7809548238B81282F30E08A81882F80
:1002F00090E0B90102C0660F771F8A95E2F7CB0143
:10030000842B8C9321C0A2E3B0E0E2E3F0E0808193
:10031000482F8A81282F30E081E090E002C0880FCA
:10032000991F2A95E2F7809548238B81282F30E08A
:100330008A81882F90E0B90102C0660F771F8A95E5
:10034000E2F7CB01842B8C930F900F900F900F90BE
:100350000F90CF91DF910895DF93CF9300D000D01D
:100360000F92CDB7DEB78A836B8319828A81282FDB
:1003700030E03D832C834C815D814130510541F15A
:100380008C819D818230910534F42C813D81211531
:10039000310561F052C04C815D814230510551F10F
:1003A0008C819D8183309105B9F147C0E9E3F0E08C
:1003B0008081282F30E08B81882F90E0A90102C036
:1003C000559547958A95E2F7CA018170898335C0B2
:1003D000E6E3F0E08081282F30E08B81882F90E0E9
:1003E000A90102C0559547958A95E2F7CA01817027
:1003F000898323C0E3E3F0E08081282F30E08B8104
:10040000882F90E0A90102C0559547958A95E2F79B
:10041000CA018170898311C0E0E3F0E08081282F58
:1004200030E08B81882F90E0A90102C05595479557
:100430008A95E2F7CA018170898389810F900F90B4
:100440000F900F900F90CF91DF910895DF93CF938E
:1004500000D000D0CDB7DEB789836A838981282F89
:1004600030E03C832B838B819C8181309105D1F0DE
:100470002B813C81223031052CF48B819C810097AB
:1004800061F01EC02B813C812230310581F08B81CF
:100490009C818330910581F013C0EAE3F0E08A810A
:1004A00080830EC0E7E3F0E08A81808309C0E4E343
:1004B000F0E08A81808304C0E1E3F0E08A818083F8
:1004C0000F900F900F900F90CF91DF910895DF93D1
:1004D000CF9300D000D0CDB7DEB789836A838981FE
:1004E000282F30E03C832B838B819C8181309105C8
:1004F000D1F02B813C81223031052CF48B819C8101
:10050000009761F01EC02B813C812230310581F0C3
:100510008B819C818330910581F013C0EBE3F0E087
:100520008A8180830EC0E8E3F0E08A81808309C07D
:10053000E5E3F0E08A81808304C0E2E3F0E08A81B1
:1005400080830F900F900F900F90CF91DF910895BF
:10055000DF93CF9300D000D0CDB7DEB78A83198266
:100560008A81282F30E03C832B838B819C818130D2
:100570009105D1F02B813C81223031052CF48B8107
:100580009C81009761F01EC02B813C812230310597
:1005900081F08B819C818330910581F013C0E9E368
:1005A000F0E0808189830EC0E6E3F0E080818983FA
:1005B00009C0E3E3F0E08081898304C0E0E3F0E078
:1005C0008081898389810F900F900F900F90CF9138
:1005D000DF910895DF93CF93CDB7DEB7E0E4F0E08D
:1005E00086E88083AAE2B0E0EAE2F0E080818B7FD7
:1005F0008C93E9E2F0E083E38083AAE2B0E0EAE2F0
:10060000F0E0808180618C93AAE2B0E0EAE2F0E061
:10061000808188608C93CF91DF910895DF93CF9391
:100620000F92CDB7DEB78983EBE2F0E0808182954F
:1006300086958770882F90E0817090700097A1F365
:10064000ECE2F0E0898180830F90CF91DF910895F3
:10065000DF93CF93CDB7DEB7EBE2F0E08081882364
:10066000DCF7ECE2F0E08081CF91DF910895DF9339
:10067000CF9300D00F92CDB7DEB79B838A831982C8
:100680000EC08981282F30E08A819B81FC01E20F16
:10069000F31F80810E940E0389818F5F8983898186
:1006A000282F30E08A819B81FC01E20FF31F8081BB
:1006B000882339F70F900F900F90CF91DF91089515
:1006C0000F931F93DF93CF9300D00F92CDB7DEB778
:1006D0009B838A8319820FC08981282F30E08A8109
:1006E0009B818C01020F131F0E942803F801808355
:1006F00089818F5F89838981282F30E08A819B815E
:10070000FC01E20FF31F80818B3631F70F900F90C1
:100710000F90CF91DF911F910F910895DF93CF93A9
:100720000F92CDB7DEB70E94EA0280E060E041E0C0
:100730000E9436000E942803898389810E940E034B
:100740008981883431F480E060E041E00E94F1006A
:10075000F1CF80E060E040E00E94F100EBCFF89440
:02076000FFCFC9
:00000001FF
